{
  "_format": "hh-sol-artifact-1",
  "contractName": "Lend",
  "sourceName": "contracts/Lend.sol",
  "abi": [
    {
      "inputs": [],
      "stateMutability": "nonpayable",
      "type": "constructor"
    },
    {
      "inputs": [
        {
          "internalType": "address",
          "name": "walletAddress",
          "type": "address"
        }
      ],
      "name": "checkTokenBalance",
      "outputs": [
        {
          "internalType": "uint256",
          "name": "",
          "type": "uint256"
        }
      ],
      "stateMutability": "view",
      "type": "function"
    },
    {
      "inputs": [],
      "name": "token",
      "outputs": [
        {
          "internalType": "contract ERC20",
          "name": "",
          "type": "address"
        }
      ],
      "stateMutability": "view",
      "type": "function"
    }
  ],
  "bytecode": "0x608060405234801561001057600080fd5b5073b201a3de10285b201cfc7ae245f6b40f721c7a5b6000806101000a81548173ffffffffffffffffffffffffffffffffffffffff021916908373ffffffffffffffffffffffffffffffffffffffff16021790555061034c806100746000396000f3fe608060405234801561001057600080fd5b50600436106100365760003560e01c8063126cbe601461003b578063fc0c546a1461006b575b600080fd5b610055600480360381019061005091906101b8565b610089565b60405161006291906101fe565b60405180910390f35b610073610131565b6040516100809190610278565b60405180910390f35b60008060008054906101000a900473ffffffffffffffffffffffffffffffffffffffff1673ffffffffffffffffffffffffffffffffffffffff166370a08231846040518263ffffffff1660e01b81526004016100e591906102a2565b602060405180830381865afa158015610102573d6000803e3d6000fd5b505050506040513d601f19601f8201168201806040525081019061012691906102e9565b905080915050919050565b60008054906101000a900473ffffffffffffffffffffffffffffffffffffffff1681565b600080fd5b600073ffffffffffffffffffffffffffffffffffffffff82169050919050565b60006101858261015a565b9050919050565b6101958161017a565b81146101a057600080fd5b50565b6000813590506101b28161018c565b92915050565b6000602082840312156101ce576101cd610155565b5b60006101dc848285016101a3565b91505092915050565b6000819050919050565b6101f8816101e5565b82525050565b600060208201905061021360008301846101ef565b92915050565b6000819050919050565b600061023e6102396102348461015a565b610219565b61015a565b9050919050565b600061025082610223565b9050919050565b600061026282610245565b9050919050565b61027281610257565b82525050565b600060208201905061028d6000830184610269565b92915050565b61029c8161017a565b82525050565b60006020820190506102b76000830184610293565b92915050565b6102c6816101e5565b81146102d157600080fd5b50565b6000815190506102e3816102bd565b92915050565b6000602082840312156102ff576102fe610155565b5b600061030d848285016102d4565b9150509291505056fea2646970667358221220302aa69a403ff7110bb2fbff3b1a5536c67f559794a9a4ebf1ea1e8406d1abcf64736f6c63430008180033",
  "linkReferences": {},
  "deployedLinkReferences": {}
}