{
  "_format": "hh-sol-artifact-1",
  "contractName": "ATokenETH",
  "sourceName": "contracts/ATokenETH.sol",
  "abi": [
    {
      "inputs": [],
      "stateMutability": "nonpayable",
      "type": "constructor"
    },
    {
      "anonymous": false,
      "inputs": [
        {
          "indexed": true,
          "internalType": "address",
          "name": "owner",
          "type": "address"
        },
        {
          "indexed": true,
          "internalType": "address",
          "name": "spender",
          "type": "address"
        },
        {
          "indexed": false,
          "internalType": "uint256",
          "name": "value",
          "type": "uint256"
        }
      ],
      "name": "Approval",
      "type": "event"
    },
    {
      "anonymous": false,
      "inputs": [
        {
          "indexed": true,
          "internalType": "address",
          "name": "recipient",
          "type": "address"
        },
        {
          "indexed": false,
          "internalType": "uint256",
          "name": "balance",
          "type": "uint256"
        }
      ],
      "name": "BalanceAfterMint",
      "type": "event"
    },
    {
      "anonymous": false,
      "inputs": [
        {
          "indexed": true,
          "internalType": "address",
          "name": "burner",
          "type": "address"
        },
        {
          "indexed": false,
          "internalType": "uint256",
          "name": "amount",
          "type": "uint256"
        },
        {
          "indexed": false,
          "internalType": "uint256",
          "name": "ethAmount",
          "type": "uint256"
        }
      ],
      "name": "TokensBurned",
      "type": "event"
    },
    {
      "anonymous": false,
      "inputs": [
        {
          "indexed": true,
          "internalType": "address",
          "name": "recipient",
          "type": "address"
        },
        {
          "indexed": false,
          "internalType": "uint256",
          "name": "amount",
          "type": "uint256"
        },
        {
          "indexed": false,
          "internalType": "uint256",
          "name": "aaveAmount",
          "type": "uint256"
        }
      ],
      "name": "TokensMinted",
      "type": "event"
    },
    {
      "anonymous": false,
      "inputs": [
        {
          "indexed": true,
          "internalType": "address",
          "name": "from",
          "type": "address"
        },
        {
          "indexed": true,
          "internalType": "address",
          "name": "to",
          "type": "address"
        },
        {
          "indexed": false,
          "internalType": "uint256",
          "name": "value",
          "type": "uint256"
        }
      ],
      "name": "Transfer",
      "type": "event"
    },
    {
      "inputs": [],
      "name": "aaveToUsd",
      "outputs": [
        {
          "internalType": "uint256",
          "name": "",
          "type": "uint256"
        }
      ],
      "stateMutability": "view",
      "type": "function"
    },
    {
      "inputs": [
        {
          "internalType": "address",
          "name": "owner",
          "type": "address"
        },
        {
          "internalType": "address",
          "name": "spender",
          "type": "address"
        }
      ],
      "name": "allowance",
      "outputs": [
        {
          "internalType": "uint256",
          "name": "",
          "type": "uint256"
        }
      ],
      "stateMutability": "view",
      "type": "function"
    },
    {
      "inputs": [
        {
          "internalType": "address",
          "name": "spender",
          "type": "address"
        },
        {
          "internalType": "uint256",
          "name": "amount",
          "type": "uint256"
        }
      ],
      "name": "approve",
      "outputs": [
        {
          "internalType": "bool",
          "name": "",
          "type": "bool"
        }
      ],
      "stateMutability": "nonpayable",
      "type": "function"
    },
    {
      "inputs": [
        {
          "internalType": "address",
          "name": "account",
          "type": "address"
        }
      ],
      "name": "balanceOf",
      "outputs": [
        {
          "internalType": "uint256",
          "name": "",
          "type": "uint256"
        }
      ],
      "stateMutability": "view",
      "type": "function"
    },
    {
      "inputs": [
        {
          "internalType": "address",
          "name": "",
          "type": "address"
        },
        {
          "internalType": "uint256",
          "name": "amount",
          "type": "uint256"
        }
      ],
      "name": "burnTokens",
      "outputs": [],
      "stateMutability": "nonpayable",
      "type": "function"
    },
    {
      "inputs": [],
      "name": "decimals",
      "outputs": [
        {
          "internalType": "uint8",
          "name": "",
          "type": "uint8"
        }
      ],
      "stateMutability": "view",
      "type": "function"
    },
    {
      "inputs": [
        {
          "internalType": "address",
          "name": "spender",
          "type": "address"
        },
        {
          "internalType": "uint256",
          "name": "subtractedValue",
          "type": "uint256"
        }
      ],
      "name": "decreaseAllowance",
      "outputs": [
        {
          "internalType": "bool",
          "name": "",
          "type": "bool"
        }
      ],
      "stateMutability": "nonpayable",
      "type": "function"
    },
    {
      "inputs": [],
      "name": "ethToUsd",
      "outputs": [
        {
          "internalType": "uint256",
          "name": "",
          "type": "uint256"
        }
      ],
      "stateMutability": "view",
      "type": "function"
    },
    {
      "inputs": [
        {
          "internalType": "address",
          "name": "spender",
          "type": "address"
        },
        {
          "internalType": "uint256",
          "name": "addedValue",
          "type": "uint256"
        }
      ],
      "name": "increaseAllowance",
      "outputs": [
        {
          "internalType": "bool",
          "name": "",
          "type": "bool"
        }
      ],
      "stateMutability": "nonpayable",
      "type": "function"
    },
    {
      "inputs": [
        {
          "internalType": "address",
          "name": "recipient",
          "type": "address"
        },
        {
          "internalType": "uint256",
          "name": "amount",
          "type": "uint256"
        }
      ],
      "name": "mintTokens",
      "outputs": [],
      "stateMutability": "nonpayable",
      "type": "function"
    },
    {
      "inputs": [],
      "name": "name",
      "outputs": [
        {
          "internalType": "string",
          "name": "",
          "type": "string"
        }
      ],
      "stateMutability": "view",
      "type": "function"
    },
    {
      "inputs": [],
      "name": "owner",
      "outputs": [
        {
          "internalType": "address",
          "name": "",
          "type": "address"
        }
      ],
      "stateMutability": "view",
      "type": "function"
    },
    {
      "inputs": [],
      "name": "symbol",
      "outputs": [
        {
          "internalType": "string",
          "name": "",
          "type": "string"
        }
      ],
      "stateMutability": "view",
      "type": "function"
    },
    {
      "inputs": [],
      "name": "totalSupply",
      "outputs": [
        {
          "internalType": "uint256",
          "name": "",
          "type": "uint256"
        }
      ],
      "stateMutability": "view",
      "type": "function"
    },
    {
      "inputs": [
        {
          "internalType": "address",
          "name": "to",
          "type": "address"
        },
        {
          "internalType": "uint256",
          "name": "amount",
          "type": "uint256"
        }
      ],
      "name": "transfer",
      "outputs": [
        {
          "internalType": "bool",
          "name": "",
          "type": "bool"
        }
      ],
      "stateMutability": "nonpayable",
      "type": "function"
    },
    {
      "inputs": [
        {
          "internalType": "address",
          "name": "from",
          "type": "address"
        },
        {
          "internalType": "address",
          "name": "to",
          "type": "address"
        },
        {
          "internalType": "uint256",
          "name": "amount",
          "type": "uint256"
        }
      ],
      "name": "transferFrom",
      "outputs": [
        {
          "internalType": "bool",
          "name": "",
          "type": "bool"
        }
      ],
      "stateMutability": "nonpayable",
      "type": "function"
    }
  ],
  "bytecode": "0x60806040523480156200001157600080fd5b506040518060400160405280600f81526020017f61546f6b656e20457468657265756d00000000000000000000000000000000008152506040518060400160405280600781526020017f616e65774554480000000000000000000000000000000000000000000000000081525081600390816200008f9190620003a1565b508060049081620000a19190620003a1565b50505033600560006101000a81548173ffffffffffffffffffffffffffffffffffffffff021916908373ffffffffffffffffffffffffffffffffffffffff16021790555068abf1fbd3eca73f00006ec097ce7bc90715b34b9f10000000006200010b9190620004b7565b6006819055506804cc99bdf2ad550000600781905550620004ef565b600081519050919050565b7f4e487b7100000000000000000000000000000000000000000000000000000000600052604160045260246000fd5b7f4e487b7100000000000000000000000000000000000000000000000000000000600052602260045260246000fd5b60006002820490506001821680620001a957607f821691505b602082108103620001bf57620001be62000161565b5b50919050565b60008190508160005260206000209050919050565b60006020601f8301049050919050565b600082821b905092915050565b600060088302620002297fffffffffffffffffffffffffffffffffffffffffffffffffffffffffffffffff82620001ea565b620002358683620001ea565b95508019841693508086168417925050509392505050565b6000819050919050565b6000819050919050565b6000620002826200027c62000276846200024d565b62000257565b6200024d565b9050919050565b6000819050919050565b6200029e8362000261565b620002b6620002ad8262000289565b848454620001f7565b825550505050565b600090565b620002cd620002be565b620002da81848462000293565b505050565b5b818110156200030257620002f6600082620002c3565b600181019050620002e0565b5050565b601f82111562000351576200031b81620001c5565b6200032684620001da565b8101602085101562000336578190505b6200034e6200034585620001da565b830182620002df565b50505b505050565b600082821c905092915050565b6000620003766000198460080262000356565b1980831691505092915050565b600062000391838362000363565b9150826002028217905092915050565b620003ac8262000127565b67ffffffffffffffff811115620003c857620003c762000132565b5b620003d4825462000190565b620003e182828562000306565b600060209050601f83116001811462000419576000841562000404578287015190505b62000410858262000383565b86555062000480565b601f1984166200042986620001c5565b60005b8281101562000453578489015182556001820191506020850194506020810190506200042c565b868310156200047357848901516200046f601f89168262000363565b8355505b6001600288020188555050505b505050505050565b7f4e487b7100000000000000000000000000000000000000000000000000000000600052601260045260246000fd5b6000620004c4826200024d565b9150620004d1836200024d565b925082620004e457620004e362000488565b5b828204905092915050565b611d4080620004ff6000396000f3fe608060405234801561001057600080fd5b50600436106101005760003560e01c806370a0823111610097578063a9059cbb11610066578063a9059cbb146102c5578063ab4766e8146102f5578063dd62ed3e14610313578063f0dda65c1461034357610100565b806370a08231146102295780638da5cb5b1461025957806395d89b4114610277578063a457c2d71461029557610100565b806323b872dd116100d357806323b872dd1461018d578063313ce567146101bd57806339509351146101db57806342e8dc891461020b57610100565b806306fdde0314610105578063095ea7b3146101235780630d1118ce1461015357806318160ddd1461016f575b600080fd5b61010d61035f565b60405161011a9190611254565b60405180910390f35b61013d6004803603810190610138919061130f565b6103f1565b60405161014a919061136a565b60405180910390f35b61016d6004803603810190610168919061130f565b610414565b005b6101776105b4565b6040516101849190611394565b60405180910390f35b6101a760048036038101906101a291906113af565b6105be565b6040516101b4919061136a565b60405180910390f35b6101c56105ed565b6040516101d2919061141e565b60405180910390f35b6101f560048036038101906101f0919061130f565b6105f6565b604051610202919061136a565b60405180910390f35b61021361062d565b6040516102209190611394565b60405180910390f35b610243600480360381019061023e9190611439565b610633565b6040516102509190611394565b60405180910390f35b61026161067b565b60405161026e9190611475565b60405180910390f35b61027f6106a1565b60405161028c9190611254565b60405180910390f35b6102af60048036038101906102aa919061130f565b610733565b6040516102bc919061136a565b60405180910390f35b6102df60048036038101906102da919061130f565b6107aa565b6040516102ec919061136a565b60405180910390f35b6102fd6107cd565b60405161030a9190611394565b60405180910390f35b61032d60048036038101906103289190611490565b6107d3565b60405161033a9190611394565b60405180910390f35b61035d6004803603810190610358919061130f565b61085a565b005b60606003805461036e906114ff565b80601f016020809104026020016040519081016040528092919081815260200182805461039a906114ff565b80156103e75780601f106103bc576101008083540402835291602001916103e7565b820191906000526020600020905b8154815290600101906020018083116103ca57829003601f168201915b5050505050905090565b6000806103fc6109c4565b90506104098185856109cc565b600191505092915050565b600560009054906101000a900473ffffffffffffffffffffffffffffffffffffffff1673ffffffffffffffffffffffffffffffffffffffff163373ffffffffffffffffffffffffffffffffffffffff16146104a4576040517f08c379a000000000000000000000000000000000000000000000000000000000815260040161049b9061157c565b60405180910390fd5b6000600754600654836104b791906115cb565b6104c1919061163c565b9050806104cd33610633565b101561050e576040517f08c379a0000000000000000000000000000000000000000000000000000000008152600401610505906116b9565b60405180910390fd5b6105183383610b95565b3373ffffffffffffffffffffffffffffffffffffffff166108fc829081150290604051600060405180830381858888f1935050505015801561055e573d6000803e3d6000fd5b503373ffffffffffffffffffffffffffffffffffffffff167fccbea4088a3b7ae9ca2d15fab9a9742a4075b4d7247768a1eecea917565aba0083836040516105a79291906116d9565b60405180910390a2505050565b6000600254905090565b6000806105c96109c4565b90506105d6858285610d62565b6105e1858585610dee565b60019150509392505050565b60006012905090565b6000806106016109c4565b905061062281858561061385896107d3565b61061d9190611702565b6109cc565b600191505092915050565b60075481565b60008060008373ffffffffffffffffffffffffffffffffffffffff1673ffffffffffffffffffffffffffffffffffffffff168152602001908152602001600020549050919050565b600560009054906101000a900473ffffffffffffffffffffffffffffffffffffffff1681565b6060600480546106b0906114ff565b80601f01602080910402602001604051908101604052809291908181526020018280546106dc906114ff565b80156107295780601f106106fe57610100808354040283529160200191610729565b820191906000526020600020905b81548152906001019060200180831161070c57829003601f168201915b5050505050905090565b60008061073e6109c4565b9050600061074c82866107d3565b905083811015610791576040517f08c379a0000000000000000000000000000000000000000000000000000000008152600401610788906117a8565b60405180910390fd5b61079e82868684036109cc565b60019250505092915050565b6000806107b56109c4565b90506107c2818585610dee565b600191505092915050565b60065481565b6000600160008473ffffffffffffffffffffffffffffffffffffffff1673ffffffffffffffffffffffffffffffffffffffff16815260200190815260200160002060008373ffffffffffffffffffffffffffffffffffffffff1673ffffffffffffffffffffffffffffffffffffffff16815260200190815260200160002054905092915050565b600560009054906101000a900473ffffffffffffffffffffffffffffffffffffffff1673ffffffffffffffffffffffffffffffffffffffff163373ffffffffffffffffffffffffffffffffffffffff16146108ea576040517f08c379a00000000000000000000000000000000000000000000000000000000081526004016108e190611814565b60405180910390fd5b6000600754600654836108fd91906115cb565b610907919061163c565b90506109138382611064565b600061091e84610633565b90508373ffffffffffffffffffffffffffffffffffffffff167fb0750f6c39be925832beb4b2ee749481dc9e87e71e38e643dc1c7742c5f8aba2826040516109669190611394565b60405180910390a28373ffffffffffffffffffffffffffffffffffffffff167f2e8ac5177a616f2aec08c3048f5021e4e9743ece034e8d83ba5caf76688bb47584846040516109b69291906116d9565b60405180910390a250505050565b600033905090565b600073ffffffffffffffffffffffffffffffffffffffff168373ffffffffffffffffffffffffffffffffffffffff1603610a3b576040517f08c379a0000000000000000000000000000000000000000000000000000000008152600401610a32906118a6565b60405180910390fd5b600073ffffffffffffffffffffffffffffffffffffffff168273ffffffffffffffffffffffffffffffffffffffff1603610aaa576040517f08c379a0000000000000000000000000000000000000000000000000000000008152600401610aa190611938565b60405180910390fd5b80600160008573ffffffffffffffffffffffffffffffffffffffff1673ffffffffffffffffffffffffffffffffffffffff16815260200190815260200160002060008473ffffffffffffffffffffffffffffffffffffffff1673ffffffffffffffffffffffffffffffffffffffff168152602001908152602001600020819055508173ffffffffffffffffffffffffffffffffffffffff168373ffffffffffffffffffffffffffffffffffffffff167f8c5be1e5ebec7d5bd14f71427d1e84f3dd0314c0f7b2291e5b200ac8c7c3b92583604051610b889190611394565b60405180910390a3505050565b600073ffffffffffffffffffffffffffffffffffffffff168273ffffffffffffffffffffffffffffffffffffffff1603610c04576040517f08c379a0000000000000000000000000000000000000000000000000000000008152600401610bfb906119ca565b60405180910390fd5b610c10826000836111ba565b60008060008473ffffffffffffffffffffffffffffffffffffffff1673ffffffffffffffffffffffffffffffffffffffff16815260200190815260200160002054905081811015610c96576040517f08c379a0000000000000000000000000000000000000000000000000000000008152600401610c8d90611a5c565b60405180910390fd5b8181036000808573ffffffffffffffffffffffffffffffffffffffff1673ffffffffffffffffffffffffffffffffffffffff1681526020019081526020016000208190555081600260008282540392505081905550600073ffffffffffffffffffffffffffffffffffffffff168373ffffffffffffffffffffffffffffffffffffffff167fddf252ad1be2c89b69c2b068fc378daa952ba7f163c4a11628f55a4df523b3ef84604051610d499190611394565b60405180910390a3610d5d836000846111bf565b505050565b6000610d6e84846107d3565b90507fffffffffffffffffffffffffffffffffffffffffffffffffffffffffffffffff8114610de85781811015610dda576040517f08c379a0000000000000000000000000000000000000000000000000000000008152600401610dd190611ac8565b60405180910390fd5b610de784848484036109cc565b5b50505050565b600073ffffffffffffffffffffffffffffffffffffffff168373ffffffffffffffffffffffffffffffffffffffff1603610e5d576040517f08c379a0000000000000000000000000000000000000000000000000000000008152600401610e5490611b5a565b60405180910390fd5b600073ffffffffffffffffffffffffffffffffffffffff168273ffffffffffffffffffffffffffffffffffffffff1603610ecc576040517f08c379a0000000000000000000000000000000000000000000000000000000008152600401610ec390611bec565b60405180910390fd5b610ed78383836111ba565b60008060008573ffffffffffffffffffffffffffffffffffffffff1673ffffffffffffffffffffffffffffffffffffffff16815260200190815260200160002054905081811015610f5d576040517f08c379a0000000000000000000000000000000000000000000000000000000008152600401610f5490611c7e565b60405180910390fd5b8181036000808673ffffffffffffffffffffffffffffffffffffffff1673ffffffffffffffffffffffffffffffffffffffff16815260200190815260200160002081905550816000808573ffffffffffffffffffffffffffffffffffffffff1673ffffffffffffffffffffffffffffffffffffffff168152602001908152602001600020600082825401925050819055508273ffffffffffffffffffffffffffffffffffffffff168473ffffffffffffffffffffffffffffffffffffffff167fddf252ad1be2c89b69c2b068fc378daa952ba7f163c4a11628f55a4df523b3ef8460405161104b9190611394565b60405180910390a361105e8484846111bf565b50505050565b600073ffffffffffffffffffffffffffffffffffffffff168273ffffffffffffffffffffffffffffffffffffffff16036110d3576040517f08c379a00000000000000000000000000000000000000000000000000000000081526004016110ca90611cea565b60405180910390fd5b6110df600083836111ba565b80600260008282546110f19190611702565b92505081905550806000808473ffffffffffffffffffffffffffffffffffffffff1673ffffffffffffffffffffffffffffffffffffffff168152602001908152602001600020600082825401925050819055508173ffffffffffffffffffffffffffffffffffffffff16600073ffffffffffffffffffffffffffffffffffffffff167fddf252ad1be2c89b69c2b068fc378daa952ba7f163c4a11628f55a4df523b3ef836040516111a29190611394565b60405180910390a36111b6600083836111bf565b5050565b505050565b505050565b600081519050919050565b600082825260208201905092915050565b60005b838110156111fe5780820151818401526020810190506111e3565b60008484015250505050565b6000601f19601f8301169050919050565b6000611226826111c4565b61123081856111cf565b93506112408185602086016111e0565b6112498161120a565b840191505092915050565b6000602082019050818103600083015261126e818461121b565b905092915050565b600080fd5b600073ffffffffffffffffffffffffffffffffffffffff82169050919050565b60006112a68261127b565b9050919050565b6112b68161129b565b81146112c157600080fd5b50565b6000813590506112d3816112ad565b92915050565b6000819050919050565b6112ec816112d9565b81146112f757600080fd5b50565b600081359050611309816112e3565b92915050565b6000806040838503121561132657611325611276565b5b6000611334858286016112c4565b9250506020611345858286016112fa565b9150509250929050565b60008115159050919050565b6113648161134f565b82525050565b600060208201905061137f600083018461135b565b92915050565b61138e816112d9565b82525050565b60006020820190506113a96000830184611385565b92915050565b6000806000606084860312156113c8576113c7611276565b5b60006113d6868287016112c4565b93505060206113e7868287016112c4565b92505060406113f8868287016112fa565b9150509250925092565b600060ff82169050919050565b61141881611402565b82525050565b6000602082019050611433600083018461140f565b92915050565b60006020828403121561144f5761144e611276565b5b600061145d848285016112c4565b91505092915050565b61146f8161129b565b82525050565b600060208201905061148a6000830184611466565b92915050565b600080604083850312156114a7576114a6611276565b5b60006114b5858286016112c4565b92505060206114c6858286016112c4565b9150509250929050565b7f4e487b7100000000000000000000000000000000000000000000000000000000600052602260045260246000fd5b6000600282049050600182168061151757607f821691505b60208210810361152a576115296114d0565b5b50919050565b7f4f6e6c79206f776e65722063616e206275726e20746f6b656e73000000000000600082015250565b6000611566601a836111cf565b915061157182611530565b602082019050919050565b6000602082019050818103600083015261159581611559565b9050919050565b7f4e487b7100000000000000000000000000000000000000000000000000000000600052601160045260246000fd5b60006115d6826112d9565b91506115e1836112d9565b92508282026115ef816112d9565b915082820484148315176116065761160561159c565b5b5092915050565b7f4e487b7100000000000000000000000000000000000000000000000000000000600052601260045260246000fd5b6000611647826112d9565b9150611652836112d9565b9250826116625761166161160d565b5b828204905092915050565b7f496e73756666696369656e742062616c616e6365000000000000000000000000600082015250565b60006116a36014836111cf565b91506116ae8261166d565b602082019050919050565b600060208201905081810360008301526116d281611696565b9050919050565b60006040820190506116ee6000830185611385565b6116fb6020830184611385565b9392505050565b600061170d826112d9565b9150611718836112d9565b92508282019050808211156117305761172f61159c565b5b92915050565b7f45524332303a2064656372656173656420616c6c6f77616e63652062656c6f7760008201527f207a65726f000000000000000000000000000000000000000000000000000000602082015250565b60006117926025836111cf565b915061179d82611736565b604082019050919050565b600060208201905081810360008301526117c181611785565b9050919050565b7f4f6e6c79206f776e65722063616e206d696e7420746f6b656e73000000000000600082015250565b60006117fe601a836111cf565b9150611809826117c8565b602082019050919050565b6000602082019050818103600083015261182d816117f1565b9050919050565b7f45524332303a20617070726f76652066726f6d20746865207a65726f2061646460008201527f7265737300000000000000000000000000000000000000000000000000000000602082015250565b60006118906024836111cf565b915061189b82611834565b604082019050919050565b600060208201905081810360008301526118bf81611883565b9050919050565b7f45524332303a20617070726f766520746f20746865207a65726f20616464726560008201527f7373000000000000000000000000000000000000000000000000000000000000602082015250565b60006119226022836111cf565b915061192d826118c6565b604082019050919050565b6000602082019050818103600083015261195181611915565b9050919050565b7f45524332303a206275726e2066726f6d20746865207a65726f2061646472657360008201527f7300000000000000000000000000000000000000000000000000000000000000602082015250565b60006119b46021836111cf565b91506119bf82611958565b604082019050919050565b600060208201905081810360008301526119e3816119a7565b9050919050565b7f45524332303a206275726e20616d6f756e7420657863656564732062616c616e60008201527f6365000000000000000000000000000000000000000000000000000000000000602082015250565b6000611a466022836111cf565b9150611a51826119ea565b604082019050919050565b60006020820190508181036000830152611a7581611a39565b9050919050565b7f45524332303a20696e73756666696369656e7420616c6c6f77616e6365000000600082015250565b6000611ab2601d836111cf565b9150611abd82611a7c565b602082019050919050565b60006020820190508181036000830152611ae181611aa5565b9050919050565b7f45524332303a207472616e736665722066726f6d20746865207a65726f20616460008201527f6472657373000000000000000000000000000000000000000000000000000000602082015250565b6000611b446025836111cf565b9150611b4f82611ae8565b604082019050919050565b60006020820190508181036000830152611b7381611b37565b9050919050565b7f45524332303a207472616e7366657220746f20746865207a65726f206164647260008201527f6573730000000000000000000000000000000000000000000000000000000000602082015250565b6000611bd66023836111cf565b9150611be182611b7a565b604082019050919050565b60006020820190508181036000830152611c0581611bc9565b9050919050565b7f45524332303a207472616e7366657220616d6f756e742065786365656473206260008201527f616c616e63650000000000000000000000000000000000000000000000000000602082015250565b6000611c686026836111cf565b9150611c7382611c0c565b604082019050919050565b60006020820190508181036000830152611c9781611c5b565b9050919050565b7f45524332303a206d696e7420746f20746865207a65726f206164647265737300600082015250565b6000611cd4601f836111cf565b9150611cdf82611c9e565b602082019050919050565b60006020820190508181036000830152611d0381611cc7565b905091905056fea264697066735822122030f6872bcde82b3aab36e53a7f9e580600493be52d1389943f609c35df46bb4064736f6c63430008180033",
  "linkReferences": {},
  "deployedLinkReferences": {}
}