{
  "_format": "hh-sol-artifact-1",
  "contractName": "NewLending",
  "sourceName": "contracts/NewLending.sol",
  "abi": [
    {
      "inputs": [],
      "stateMutability": "nonpayable",
      "type": "constructor"
    },
    {
      "anonymous": false,
      "inputs": [
        {
          "indexed": false,
          "internalType": "address",
          "name": "account",
          "type": "address"
        },
        {
          "indexed": false,
          "internalType": "uint256",
          "name": "balance",
          "type": "uint256"
        }
      ],
      "name": "BalanceAfterDeposit",
      "type": "event"
    },
    {
      "anonymous": false,
      "inputs": [
        {
          "indexed": false,
          "internalType": "address",
          "name": "account",
          "type": "address"
        },
        {
          "indexed": false,
          "internalType": "uint256",
          "name": "balance",
          "type": "uint256"
        }
      ],
      "name": "BalanceAfterWithdrawal",
      "type": "event"
    },
    {
      "anonymous": false,
      "inputs": [
        {
          "indexed": true,
          "internalType": "address",
          "name": "user",
          "type": "address"
        },
        {
          "indexed": false,
          "internalType": "uint256",
          "name": "amount",
          "type": "uint256"
        },
        {
          "indexed": false,
          "internalType": "uint256",
          "name": "tokensMinted",
          "type": "uint256"
        }
      ],
      "name": "Deposit",
      "type": "event"
    },
    {
      "anonymous": false,
      "inputs": [
        {
          "indexed": true,
          "internalType": "address",
          "name": "user",
          "type": "address"
        },
        {
          "indexed": false,
          "internalType": "uint256",
          "name": "amount",
          "type": "uint256"
        }
      ],
      "name": "Withdraw",
      "type": "event"
    },
    {
      "inputs": [
        {
          "internalType": "address",
          "name": "",
          "type": "address"
        }
      ],
      "name": "Balances_ETH",
      "outputs": [
        {
          "internalType": "uint256",
          "name": "",
          "type": "uint256"
        }
      ],
      "stateMutability": "view",
      "type": "function"
    },
    {
      "inputs": [
        {
          "internalType": "address",
          "name": "",
          "type": "address"
        }
      ],
      "name": "Balances_IBT",
      "outputs": [
        {
          "internalType": "uint256",
          "name": "",
          "type": "uint256"
        }
      ],
      "stateMutability": "view",
      "type": "function"
    },
    {
      "inputs": [],
      "name": "balances_IBT",
      "outputs": [
        {
          "internalType": "uint256",
          "name": "",
          "type": "uint256"
        }
      ],
      "stateMutability": "view",
      "type": "function"
    },
    {
      "inputs": [
        {
          "internalType": "address",
          "name": "walletAddress",
          "type": "address"
        }
      ],
      "name": "checkIBTBalance",
      "outputs": [
        {
          "internalType": "uint256",
          "name": "",
          "type": "uint256"
        }
      ],
      "stateMutability": "view",
      "type": "function"
    },
    {
      "inputs": [
        {
          "internalType": "address",
          "name": "walletAddress",
          "type": "address"
        }
      ],
      "name": "checkMaticBalance",
      "outputs": [
        {
          "internalType": "uint256",
          "name": "",
          "type": "uint256"
        }
      ],
      "stateMutability": "view",
      "type": "function"
    },
    {
      "inputs": [],
      "name": "deposit_ETH",
      "outputs": [],
      "stateMutability": "payable",
      "type": "function"
    },
    {
      "inputs": [],
      "name": "deposit_IBT",
      "outputs": [],
      "stateMutability": "payable",
      "type": "function"
    },
    {
      "inputs": [],
      "name": "token_ETH",
      "outputs": [
        {
          "internalType": "contract ATokenETH",
          "name": "",
          "type": "address"
        }
      ],
      "stateMutability": "view",
      "type": "function"
    },
    {
      "inputs": [],
      "name": "token_IBT",
      "outputs": [
        {
          "internalType": "contract ATokenETH",
          "name": "",
          "type": "address"
        }
      ],
      "stateMutability": "view",
      "type": "function"
    },
    {
      "inputs": [],
      "name": "token_ibt_address",
      "outputs": [
        {
          "internalType": "contract IERC20",
          "name": "",
          "type": "address"
        }
      ],
      "stateMutability": "view",
      "type": "function"
    },
    {
      "inputs": [],
      "name": "token_matic_address",
      "outputs": [
        {
          "internalType": "contract ERC20",
          "name": "",
          "type": "address"
        }
      ],
      "stateMutability": "view",
      "type": "function"
    },
    {
      "inputs": [],
      "name": "totalDeposits_ETH",
      "outputs": [
        {
          "internalType": "uint256",
          "name": "",
          "type": "uint256"
        }
      ],
      "stateMutability": "view",
      "type": "function"
    },
    {
      "inputs": [],
      "name": "totalDeposits_IBT",
      "outputs": [
        {
          "internalType": "uint256",
          "name": "",
          "type": "uint256"
        }
      ],
      "stateMutability": "view",
      "type": "function"
    },
    {
      "inputs": [
        {
          "internalType": "uint256",
          "name": "_amount",
          "type": "uint256"
        }
      ],
      "name": "withdraw_ETH",
      "outputs": [],
      "stateMutability": "payable",
      "type": "function"
    },
    {
      "inputs": [
        {
          "internalType": "uint256",
          "name": "_amount",
          "type": "uint256"
        }
      ],
      "name": "withdraw_IBT",
      "outputs": [],
      "stateMutability": "payable",
      "type": "function"
    }
  ],
  "bytecode": "0x608060405233600860006101000a81548173ffffffffffffffffffffffffffffffffffffffff021916908373ffffffffffffffffffffffffffffffffffffffff1602179055506200005633620001ef60201b60201c565b6009553480156200006657600080fd5b50604051620000759062000299565b604051809103906000f08015801562000092573d6000803e3d6000fd5b50600460006101000a81548173ffffffffffffffffffffffffffffffffffffffff021916908373ffffffffffffffffffffffffffffffffffffffff160217905550604051620000e19062000299565b604051809103906000f080158015620000fe573d6000803e3d6000fd5b50600560006101000a81548173ffffffffffffffffffffffffffffffffffffffff021916908373ffffffffffffffffffffffffffffffffffffffff16021790555073b201a3de10285b201cfc7ae245f6b40f721c7a5b600660006101000a81548173ffffffffffffffffffffffffffffffffffffffff021916908373ffffffffffffffffffffffffffffffffffffffff160217905550737d1afa7b718fb893db30a3abc0cfc608aacfebb0600760006101000a81548173ffffffffffffffffffffffffffffffffffffffff021916908373ffffffffffffffffffffffffffffffffffffffff1602179055506200037b565b6000600660009054906101000a900473ffffffffffffffffffffffffffffffffffffffff1673ffffffffffffffffffffffffffffffffffffffff166370a08231836040518263ffffffff1660e01b81526004016200024e9190620002ec565b602060405180830381865afa1580156200026c573d6000803e3d6000fd5b505050506040513d601f19601f8201168201806040525081019062000292919062000349565b9050919050565b6125ef806200178183390190565b600073ffffffffffffffffffffffffffffffffffffffff82169050919050565b6000620002d482620002a7565b9050919050565b620002e681620002c7565b82525050565b6000602082019050620003036000830184620002db565b92915050565b600080fd5b6000819050919050565b62000323816200030e565b81146200032f57600080fd5b50565b600081519050620003438162000318565b92915050565b60006020828403121562000362576200036162000309565b5b6000620003728482850162000332565b91505092915050565b6113f6806200038b6000396000f3fe6080604052600436106100e85760003560e01c80639cdbf3731161008a578063c5cf995c11610059578063c5cf995c1461028a578063e89d9e19146102b5578063f48a3dc2146102f2578063f692ebbd1461032f576100e8565b80639cdbf373146101cc5780639f68ccef146101f7578063a090aa2b14610222578063b6a76f011461024d576100e8565b806329d09e68116100c657806329d09e68146101505780634ec22fab1461016c5780638af5f8a6146101975780638c996e77146101a1576100e8565b80630db1a483146100ed578063165ef7a11461010957806326ad9dc814610146575b600080fd5b61010760048036038101906101029190610f7f565b61035a565b005b34801561011557600080fd5b50610130600480360381019061012b919061100a565b6105b7565b60405161013d9190611046565b60405180910390f35b61014e61065c565b005b61016a60048036038101906101659190610f7f565b61086d565b005b34801561017857600080fd5b50610181610acd565b60405161018e91906110c0565b60405180910390f35b61019f610af3565b005b3480156101ad57600080fd5b506101b6610d02565b6040516101c391906110c0565b60405180910390f35b3480156101d857600080fd5b506101e1610d28565b6040516101ee91906110fc565b60405180910390f35b34801561020357600080fd5b5061020c610d4e565b6040516102199190611046565b60405180910390f35b34801561022e57600080fd5b50610237610d54565b6040516102449190611138565b60405180910390f35b34801561025957600080fd5b50610274600480360381019061026f919061100a565b610d7a565b6040516102819190611046565b60405180910390f35b34801561029657600080fd5b5061029f610d92565b6040516102ac9190611046565b60405180910390f35b3480156102c157600080fd5b506102dc60048036038101906102d7919061100a565b610d98565b6040516102e99190611046565b60405180910390f35b3480156102fe57600080fd5b506103196004803603810190610314919061100a565b610db0565b6040516103269190611046565b60405180910390f35b34801561033b57600080fd5b50610344610e55565b6040516103519190611046565b60405180910390f35b6103a16000803373ffffffffffffffffffffffffffffffffffffffff1673ffffffffffffffffffffffffffffffffffffffff16815260200190815260200160002054610e5b565b806000803373ffffffffffffffffffffffffffffffffffffffff1673ffffffffffffffffffffffffffffffffffffffff168152602001908152602001600020541015610422576040517f08c379a0000000000000000000000000000000000000000000000000000000008152600401610419906111b0565b60405180910390fd5b600460009054906101000a900473ffffffffffffffffffffffffffffffffffffffff1673ffffffffffffffffffffffffffffffffffffffff16630d1118ce33836040518363ffffffff1660e01b815260040161047f9291906111df565b600060405180830381600087803b15801561049957600080fd5b505af11580156104ad573d6000803e3d6000fd5b505050503373ffffffffffffffffffffffffffffffffffffffff166108fc829081150290604051600060405180830381858888f193505050501580156104f7573d6000803e3d6000fd5b50806000803373ffffffffffffffffffffffffffffffffffffffff1673ffffffffffffffffffffffffffffffffffffffff16815260200190815260200160002060008282546105469190611237565b92505081905550806002600082825461055f9190611237565b925050819055503373ffffffffffffffffffffffffffffffffffffffff167f884edad9ce6fa2440d8a54cc123490eb96d2768479d49ff9c7366125a9424364826040516105ac9190611046565b60405180910390a250565b6000600660009054906101000a900473ffffffffffffffffffffffffffffffffffffffff1673ffffffffffffffffffffffffffffffffffffffff166370a08231836040518263ffffffff1660e01b8152600401610614919061126b565b602060405180830381865afa158015610631573d6000803e3d6000fd5b505050506040513d601f19601f82011682018060405250810190610655919061129b565b9050919050565b6000349050600081116106a4576040517f08c379a000000000000000000000000000000000000000000000000000000000815260040161069b90611314565b60405180910390fd5b600560009054906101000a900473ffffffffffffffffffffffffffffffffffffffff1673ffffffffffffffffffffffffffffffffffffffff1663f0dda65c33836040518363ffffffff1660e01b81526004016107019291906111df565b600060405180830381600087803b15801561071b57600080fd5b505af115801561072f573d6000803e3d6000fd5b5050505080600160003373ffffffffffffffffffffffffffffffffffffffff1673ffffffffffffffffffffffffffffffffffffffff16815260200190815260200160002060008282546107829190611334565b92505081905550806003600082825461079b9190611334565b925050819055503373ffffffffffffffffffffffffffffffffffffffff167f90890809c654f11d6e72a28fa60149770a0d11ec6c92319d6ceb2bb0a4ea1a1582836040516107ea929190611368565b60405180910390a27fdeaf03adaa870bd18d29c07613b960326f8b269698f66bb8c2e9efc5ae46705e33600160003373ffffffffffffffffffffffffffffffffffffffff1673ffffffffffffffffffffffffffffffffffffffff168152602001908152602001600020546040516108629291906111df565b60405180910390a150565b6108b5600160003373ffffffffffffffffffffffffffffffffffffffff1673ffffffffffffffffffffffffffffffffffffffff16815260200190815260200160002054610e5b565b80600160003373ffffffffffffffffffffffffffffffffffffffff1673ffffffffffffffffffffffffffffffffffffffff168152602001908152602001600020541015610937576040517f08c379a000000000000000000000000000000000000000000000000000000000815260040161092e906111b0565b60405180910390fd5b600560009054906101000a900473ffffffffffffffffffffffffffffffffffffffff1673ffffffffffffffffffffffffffffffffffffffff16630d1118ce33836040518363ffffffff1660e01b81526004016109949291906111df565b600060405180830381600087803b1580156109ae57600080fd5b505af11580156109c2573d6000803e3d6000fd5b505050503373ffffffffffffffffffffffffffffffffffffffff166108fc829081150290604051600060405180830381858888f19350505050158015610a0c573d6000803e3d6000fd5b5080600160003373ffffffffffffffffffffffffffffffffffffffff1673ffffffffffffffffffffffffffffffffffffffff1681526020019081526020016000206000828254610a5c9190611237565b925050819055508060036000828254610a759190611237565b925050819055503373ffffffffffffffffffffffffffffffffffffffff167f884edad9ce6fa2440d8a54cc123490eb96d2768479d49ff9c7366125a942436482604051610ac29190611046565b60405180910390a250565b600560009054906101000a900473ffffffffffffffffffffffffffffffffffffffff1681565b600034905060008111610b3b576040517f08c379a0000000000000000000000000000000000000000000000000000000008152600401610b3290611314565b60405180910390fd5b600460009054906101000a900473ffffffffffffffffffffffffffffffffffffffff1673ffffffffffffffffffffffffffffffffffffffff1663f0dda65c33836040518363ffffffff1660e01b8152600401610b989291906111df565b600060405180830381600087803b158015610bb257600080fd5b505af1158015610bc6573d6000803e3d6000fd5b50505050806000803373ffffffffffffffffffffffffffffffffffffffff1673ffffffffffffffffffffffffffffffffffffffff1681526020019081526020016000206000828254610c189190611334565b925050819055508060026000828254610c319190611334565b925050819055503373ffffffffffffffffffffffffffffffffffffffff167f90890809c654f11d6e72a28fa60149770a0d11ec6c92319d6ceb2bb0a4ea1a158283604051610c80929190611368565b60405180910390a27fdeaf03adaa870bd18d29c07613b960326f8b269698f66bb8c2e9efc5ae46705e336000803373ffffffffffffffffffffffffffffffffffffffff1673ffffffffffffffffffffffffffffffffffffffff16815260200190815260200160002054604051610cf79291906111df565b60405180910390a150565b600460009054906101000a900473ffffffffffffffffffffffffffffffffffffffff1681565b600760009054906101000a900473ffffffffffffffffffffffffffffffffffffffff1681565b60025481565b600660009054906101000a900473ffffffffffffffffffffffffffffffffffffffff1681565b60016020528060005260406000206000915090505481565b60035481565b60006020528060005260406000206000915090505481565b6000600760009054906101000a900473ffffffffffffffffffffffffffffffffffffffff1673ffffffffffffffffffffffffffffffffffffffff166370a08231836040518263ffffffff1660e01b8152600401610e0d919061126b565b602060405180830381865afa158015610e2a573d6000803e3d6000fd5b505050506040513d601f19601f82011682018060405250810190610e4e919061129b565b9050919050565b60095481565b610ef181604051602401610e6f9190611046565b6040516020818303038152906040527ff82c50f1000000000000000000000000000000000000000000000000000000007bffffffffffffffffffffffffffffffffffffffffffffffffffffffff19166020820180517bffffffffffffffffffffffffffffffffffffffffffffffffffffffff8381831617835250505050610ef4565b50565b610f0b81610f03610f0e610f2f565b63ffffffff16565b50565b60006a636f6e736f6c652e6c6f679050600080835160208501845afa505050565b610f3a819050919050565b610f42611391565b565b600080fd5b6000819050919050565b610f5c81610f49565b8114610f6757600080fd5b50565b600081359050610f7981610f53565b92915050565b600060208284031215610f9557610f94610f44565b5b6000610fa384828501610f6a565b91505092915050565b600073ffffffffffffffffffffffffffffffffffffffff82169050919050565b6000610fd782610fac565b9050919050565b610fe781610fcc565b8114610ff257600080fd5b50565b60008135905061100481610fde565b92915050565b6000602082840312156110205761101f610f44565b5b600061102e84828501610ff5565b91505092915050565b61104081610f49565b82525050565b600060208201905061105b6000830184611037565b92915050565b6000819050919050565b600061108661108161107c84610fac565b611061565b610fac565b9050919050565b60006110988261106b565b9050919050565b60006110aa8261108d565b9050919050565b6110ba8161109f565b82525050565b60006020820190506110d560008301846110b1565b92915050565b60006110e68261108d565b9050919050565b6110f6816110db565b82525050565b600060208201905061111160008301846110ed565b92915050565b60006111228261108d565b9050919050565b61113281611117565b82525050565b600060208201905061114d6000830184611129565b92915050565b600082825260208201905092915050565b7f496e73756666696369656e742062616c616e6365000000000000000000000000600082015250565b600061119a601483611153565b91506111a582611164565b602082019050919050565b600060208201905081810360008301526111c98161118d565b9050919050565b6111d981610fcc565b82525050565b60006040820190506111f460008301856111d0565b6112016020830184611037565b9392505050565b7f4e487b7100000000000000000000000000000000000000000000000000000000600052601160045260246000fd5b600061124282610f49565b915061124d83610f49565b925082820390508181111561126557611264611208565b5b92915050565b600060208201905061128060008301846111d0565b92915050565b60008151905061129581610f53565b92915050565b6000602082840312156112b1576112b0610f44565b5b60006112bf84828501611286565b91505092915050565b7f416d6f756e74206d7573742062652067726561746572207468616e2030000000600082015250565b60006112fe601d83611153565b9150611309826112c8565b602082019050919050565b6000602082019050818103600083015261132d816112f1565b9050919050565b600061133f82610f49565b915061134a83610f49565b925082820190508082111561136257611361611208565b5b92915050565b600060408201905061137d6000830185611037565b61138a6020830184611037565b9392505050565b7f4e487b7100000000000000000000000000000000000000000000000000000000600052605160045260246000fdfea26469706673582212204034e5e5ac3f82d1061f5c33e356b6ede7372979fafd7011e9d59d7de26fe52b64736f6c6343000818003360806040523480156200001157600080fd5b506040518060400160405280600f81526020017f61546f6b656e20457468657265756d00000000000000000000000000000000008152506040518060400160405280600881526020017f616e65773145544800000000000000000000000000000000000000000000000081525081600390816200008f9190620003a1565b508060049081620000a19190620003a1565b50505033600560006101000a81548173ffffffffffffffffffffffffffffffffffffffff021916908373ffffffffffffffffffffffffffffffffffffffff16021790555068abf1fbd3eca73f00006ec097ce7bc90715b34b9f10000000006200010b9190620004b7565b6006819055506804cc99bdf2ad550000600781905550620004ef565b600081519050919050565b7f4e487b7100000000000000000000000000000000000000000000000000000000600052604160045260246000fd5b7f4e487b7100000000000000000000000000000000000000000000000000000000600052602260045260246000fd5b60006002820490506001821680620001a957607f821691505b602082108103620001bf57620001be62000161565b5b50919050565b60008190508160005260206000209050919050565b60006020601f8301049050919050565b600082821b905092915050565b600060088302620002297fffffffffffffffffffffffffffffffffffffffffffffffffffffffffffffffff82620001ea565b620002358683620001ea565b95508019841693508086168417925050509392505050565b6000819050919050565b6000819050919050565b6000620002826200027c62000276846200024d565b62000257565b6200024d565b9050919050565b6000819050919050565b6200029e8362000261565b620002b6620002ad8262000289565b848454620001f7565b825550505050565b600090565b620002cd620002be565b620002da81848462000293565b505050565b5b818110156200030257620002f6600082620002c3565b600181019050620002e0565b5050565b601f82111562000351576200031b81620001c5565b6200032684620001da565b8101602085101562000336578190505b6200034e6200034585620001da565b830182620002df565b50505b505050565b600082821c905092915050565b6000620003766000198460080262000356565b1980831691505092915050565b600062000391838362000363565b9150826002028217905092915050565b620003ac8262000127565b67ffffffffffffffff811115620003c857620003c762000132565b5b620003d4825462000190565b620003e182828562000306565b600060209050601f83116001811462000419576000841562000404578287015190505b62000410858262000383565b86555062000480565b601f1984166200042986620001c5565b60005b8281101562000453578489015182556001820191506020850194506020810190506200042c565b868310156200047357848901516200046f601f89168262000363565b8355505b6001600288020188555050505b505050505050565b7f4e487b7100000000000000000000000000000000000000000000000000000000600052601260045260246000fd5b6000620004c4826200024d565b9150620004d1836200024d565b925082620004e457620004e362000488565b5b828204905092915050565b6120f080620004ff6000396000f3fe6080604052600436106100f35760003560e01c806370a082311161008a578063a9059cbb11610059578063a9059cbb14610347578063ab4766e814610384578063dd62ed3e146103af578063f0dda65c146103ec576100f3565b806370a08231146102775780638da5cb5b146102b457806395d89b41146102df578063a457c2d71461030a576100f3565b806323b872dd116100c657806323b872dd146101a7578063313ce567146101e4578063395093511461020f57806342e8dc891461024c576100f3565b806306fdde03146100f8578063095ea7b3146101235780630d1118ce1461016057806318160ddd1461017c575b600080fd5b34801561010457600080fd5b5061010d610415565b60405161011a91906115d5565b60405180910390f35b34801561012f57600080fd5b5061014a60048036038101906101459190611690565b6104a7565b60405161015791906116eb565b60405180910390f35b61017a60048036038101906101759190611690565b6104ca565b005b34801561018857600080fd5b50610191610707565b60405161019e9190611715565b60405180910390f35b3480156101b357600080fd5b506101ce60048036038101906101c99190611730565b610711565b6040516101db91906116eb565b60405180910390f35b3480156101f057600080fd5b506101f9610740565b604051610206919061179f565b60405180910390f35b34801561021b57600080fd5b5061023660048036038101906102319190611690565b610749565b60405161024391906116eb565b60405180910390f35b34801561025857600080fd5b50610261610780565b60405161026e9190611715565b60405180910390f35b34801561028357600080fd5b5061029e600480360381019061029991906117ba565b610786565b6040516102ab9190611715565b60405180910390f35b3480156102c057600080fd5b506102c96107ce565b6040516102d691906117f6565b60405180910390f35b3480156102eb57600080fd5b506102f46107f4565b60405161030191906115d5565b60405180910390f35b34801561031657600080fd5b50610331600480360381019061032c9190611690565b610886565b60405161033e91906116eb565b60405180910390f35b34801561035357600080fd5b5061036e60048036038101906103699190611690565b6108fd565b60405161037b91906116eb565b60405180910390f35b34801561039057600080fd5b50610399610920565b6040516103a69190611715565b60405180910390f35b3480156103bb57600080fd5b506103d660048036038101906103d19190611811565b610926565b6040516103e39190611715565b60405180910390f35b3480156103f857600080fd5b50610413600480360381019061040e9190611690565b6109ad565b005b60606003805461042490611880565b80601f016020809104026020016040519081016040528092919081815260200182805461045090611880565b801561049d5780601f106104725761010080835404028352916020019161049d565b820191906000526020600020905b81548152906001019060200180831161048057829003601f168201915b5050505050905090565b6000806104b2610b2a565b90506104bf818585610b32565b600191505092915050565b6104db6104d683610786565b610cfb565b600560009054906101000a900473ffffffffffffffffffffffffffffffffffffffff1673ffffffffffffffffffffffffffffffffffffffff163373ffffffffffffffffffffffffffffffffffffffff161461056b576040517f08c379a0000000000000000000000000000000000000000000000000000000008152600401610562906118fd565b60405180910390fd5b6000600754670de0b6b3a764000060065484610587919061194c565b610591919061194c565b61059b91906119bd565b90506105a681610cfb565b806105b084610786565b10156105f1576040517f08c379a00000000000000000000000000000000000000000000000000000000081526004016105e890611a3a565b60405180910390fd5b6105fb8382610d94565b61060433610f61565b61060d83610f61565b61064b6040518060400160405280600781526020017f42616c616e636500000000000000000000000000000000000000000000000000815250610ffa565b61066b8373ffffffffffffffffffffffffffffffffffffffff1631610cfb565b6106a96040518060400160405280600881526020017f416d6f756e74203a000000000000000000000000000000000000000000000000815250610ffa565b6106b282610cfb565b8273ffffffffffffffffffffffffffffffffffffffff167fccbea4088a3b7ae9ca2d15fab9a9742a4075b4d7247768a1eecea917565aba0083836040516106fa929190611a5a565b60405180910390a2505050565b6000600254905090565b60008061071c610b2a565b9050610729858285611093565b61073485858561111f565b60019150509392505050565b60006012905090565b600080610754610b2a565b90506107758185856107668589610926565b6107709190611a83565b610b32565b600191505092915050565b60075481565b60008060008373ffffffffffffffffffffffffffffffffffffffff1673ffffffffffffffffffffffffffffffffffffffff168152602001908152602001600020549050919050565b600560009054906101000a900473ffffffffffffffffffffffffffffffffffffffff1681565b60606004805461080390611880565b80601f016020809104026020016040519081016040528092919081815260200182805461082f90611880565b801561087c5780601f106108515761010080835404028352916020019161087c565b820191906000526020600020905b81548152906001019060200180831161085f57829003601f168201915b5050505050905090565b600080610891610b2a565b9050600061089f8286610926565b9050838110156108e4576040517f08c379a00000000000000000000000000000000000000000000000000000000081526004016108db90611b29565b60405180910390fd5b6108f18286868403610b32565b60019250505092915050565b600080610908610b2a565b905061091581858561111f565b600191505092915050565b60065481565b6000600160008473ffffffffffffffffffffffffffffffffffffffff1673ffffffffffffffffffffffffffffffffffffffff16815260200190815260200160002060008373ffffffffffffffffffffffffffffffffffffffff1673ffffffffffffffffffffffffffffffffffffffff16815260200190815260200160002054905092915050565b600560009054906101000a900473ffffffffffffffffffffffffffffffffffffffff1673ffffffffffffffffffffffffffffffffffffffff163373ffffffffffffffffffffffffffffffffffffffff1614610a3d576040517f08c379a0000000000000000000000000000000000000000000000000000000008152600401610a3490611b95565b60405180910390fd5b6000600754670de0b6b3a764000060065484610a59919061194c565b610a63919061194c565b610a6d91906119bd565b9050610a798382611395565b6000610a8484610786565b90508373ffffffffffffffffffffffffffffffffffffffff167fb0750f6c39be925832beb4b2ee749481dc9e87e71e38e643dc1c7742c5f8aba282604051610acc9190611715565b60405180910390a28373ffffffffffffffffffffffffffffffffffffffff167f2e8ac5177a616f2aec08c3048f5021e4e9743ece034e8d83ba5caf76688bb4758484604051610b1c929190611a5a565b60405180910390a250505050565b600033905090565b600073ffffffffffffffffffffffffffffffffffffffff168373ffffffffffffffffffffffffffffffffffffffff1603610ba1576040517f08c379a0000000000000000000000000000000000000000000000000000000008152600401610b9890611c27565b60405180910390fd5b600073ffffffffffffffffffffffffffffffffffffffff168273ffffffffffffffffffffffffffffffffffffffff1603610c10576040517f08c379a0000000000000000000000000000000000000000000000000000000008152600401610c0790611cb9565b60405180910390fd5b80600160008573ffffffffffffffffffffffffffffffffffffffff1673ffffffffffffffffffffffffffffffffffffffff16815260200190815260200160002060008473ffffffffffffffffffffffffffffffffffffffff1673ffffffffffffffffffffffffffffffffffffffff168152602001908152602001600020819055508173ffffffffffffffffffffffffffffffffffffffff168373ffffffffffffffffffffffffffffffffffffffff167f8c5be1e5ebec7d5bd14f71427d1e84f3dd0314c0f7b2291e5b200ac8c7c3b92583604051610cee9190611715565b60405180910390a3505050565b610d9181604051602401610d0f9190611715565b6040516020818303038152906040527ff82c50f1000000000000000000000000000000000000000000000000000000007bffffffffffffffffffffffffffffffffffffffffffffffffffffffff19166020820180517bffffffffffffffffffffffffffffffffffffffffffffffffffffffff83818316178352505050506114eb565b50565b600073ffffffffffffffffffffffffffffffffffffffff168273ffffffffffffffffffffffffffffffffffffffff1603610e03576040517f08c379a0000000000000000000000000000000000000000000000000000000008152600401610dfa90611d4b565b60405180910390fd5b610e0f82600083611505565b60008060008473ffffffffffffffffffffffffffffffffffffffff1673ffffffffffffffffffffffffffffffffffffffff16815260200190815260200160002054905081811015610e95576040517f08c379a0000000000000000000000000000000000000000000000000000000008152600401610e8c90611ddd565b60405180910390fd5b8181036000808573ffffffffffffffffffffffffffffffffffffffff1673ffffffffffffffffffffffffffffffffffffffff1681526020019081526020016000208190555081600260008282540392505081905550600073ffffffffffffffffffffffffffffffffffffffff168373ffffffffffffffffffffffffffffffffffffffff167fddf252ad1be2c89b69c2b068fc378daa952ba7f163c4a11628f55a4df523b3ef84604051610f489190611715565b60405180910390a3610f5c8360008461150a565b505050565b610ff781604051602401610f7591906117f6565b6040516020818303038152906040527f2c2ecbc2000000000000000000000000000000000000000000000000000000007bffffffffffffffffffffffffffffffffffffffffffffffffffffffff19166020820180517bffffffffffffffffffffffffffffffffffffffffffffffffffffffff83818316178352505050506114eb565b50565b6110908160405160240161100e91906115d5565b6040516020818303038152906040527f41304fac000000000000000000000000000000000000000000000000000000007bffffffffffffffffffffffffffffffffffffffffffffffffffffffff19166020820180517bffffffffffffffffffffffffffffffffffffffffffffffffffffffff83818316178352505050506114eb565b50565b600061109f8484610926565b90507fffffffffffffffffffffffffffffffffffffffffffffffffffffffffffffffff8114611119578181101561110b576040517f08c379a000000000000000000000000000000000000000000000000000000000815260040161110290611e49565b60405180910390fd5b6111188484848403610b32565b5b50505050565b600073ffffffffffffffffffffffffffffffffffffffff168373ffffffffffffffffffffffffffffffffffffffff160361118e576040517f08c379a000000000000000000000000000000000000000000000000000000000815260040161118590611edb565b60405180910390fd5b600073ffffffffffffffffffffffffffffffffffffffff168273ffffffffffffffffffffffffffffffffffffffff16036111fd576040517f08c379a00000000000000000000000000000000000000000000000000000000081526004016111f490611f6d565b60405180910390fd5b611208838383611505565b60008060008573ffffffffffffffffffffffffffffffffffffffff1673ffffffffffffffffffffffffffffffffffffffff1681526020019081526020016000205490508181101561128e576040517f08c379a000000000000000000000000000000000000000000000000000000000815260040161128590611fff565b60405180910390fd5b8181036000808673ffffffffffffffffffffffffffffffffffffffff1673ffffffffffffffffffffffffffffffffffffffff16815260200190815260200160002081905550816000808573ffffffffffffffffffffffffffffffffffffffff1673ffffffffffffffffffffffffffffffffffffffff168152602001908152602001600020600082825401925050819055508273ffffffffffffffffffffffffffffffffffffffff168473ffffffffffffffffffffffffffffffffffffffff167fddf252ad1be2c89b69c2b068fc378daa952ba7f163c4a11628f55a4df523b3ef8460405161137c9190611715565b60405180910390a361138f84848461150a565b50505050565b600073ffffffffffffffffffffffffffffffffffffffff168273ffffffffffffffffffffffffffffffffffffffff1603611404576040517f08c379a00000000000000000000000000000000000000000000000000000000081526004016113fb9061206b565b60405180910390fd5b61141060008383611505565b80600260008282546114229190611a83565b92505081905550806000808473ffffffffffffffffffffffffffffffffffffffff1673ffffffffffffffffffffffffffffffffffffffff168152602001908152602001600020600082825401925050819055508173ffffffffffffffffffffffffffffffffffffffff16600073ffffffffffffffffffffffffffffffffffffffff167fddf252ad1be2c89b69c2b068fc378daa952ba7f163c4a11628f55a4df523b3ef836040516114d39190611715565b60405180910390a36114e76000838361150a565b5050565b611502816114fa61150f611530565b63ffffffff16565b50565b505050565b505050565b60006a636f6e736f6c652e6c6f679050600080835160208501845afa505050565b61153b819050919050565b61154361208b565b565b600081519050919050565b600082825260208201905092915050565b60005b8381101561157f578082015181840152602081019050611564565b60008484015250505050565b6000601f19601f8301169050919050565b60006115a782611545565b6115b18185611550565b93506115c1818560208601611561565b6115ca8161158b565b840191505092915050565b600060208201905081810360008301526115ef818461159c565b905092915050565b600080fd5b600073ffffffffffffffffffffffffffffffffffffffff82169050919050565b6000611627826115fc565b9050919050565b6116378161161c565b811461164257600080fd5b50565b6000813590506116548161162e565b92915050565b6000819050919050565b61166d8161165a565b811461167857600080fd5b50565b60008135905061168a81611664565b92915050565b600080604083850312156116a7576116a66115f7565b5b60006116b585828601611645565b92505060206116c68582860161167b565b9150509250929050565b60008115159050919050565b6116e5816116d0565b82525050565b600060208201905061170060008301846116dc565b92915050565b61170f8161165a565b82525050565b600060208201905061172a6000830184611706565b92915050565b600080600060608486031215611749576117486115f7565b5b600061175786828701611645565b935050602061176886828701611645565b92505060406117798682870161167b565b9150509250925092565b600060ff82169050919050565b61179981611783565b82525050565b60006020820190506117b46000830184611790565b92915050565b6000602082840312156117d0576117cf6115f7565b5b60006117de84828501611645565b91505092915050565b6117f08161161c565b82525050565b600060208201905061180b60008301846117e7565b92915050565b60008060408385031215611828576118276115f7565b5b600061183685828601611645565b925050602061184785828601611645565b9150509250929050565b7f4e487b7100000000000000000000000000000000000000000000000000000000600052602260045260246000fd5b6000600282049050600182168061189857607f821691505b6020821081036118ab576118aa611851565b5b50919050565b7f4f6e6c79206f776e65722063616e206275726e20746f6b656e73000000000000600082015250565b60006118e7601a83611550565b91506118f2826118b1565b602082019050919050565b60006020820190508181036000830152611916816118da565b9050919050565b7f4e487b7100000000000000000000000000000000000000000000000000000000600052601160045260246000fd5b60006119578261165a565b91506119628361165a565b92508282026119708161165a565b915082820484148315176119875761198661191d565b5b5092915050565b7f4e487b7100000000000000000000000000000000000000000000000000000000600052601260045260246000fd5b60006119c88261165a565b91506119d38361165a565b9250826119e3576119e261198e565b5b828204905092915050565b7f496e73756666696369656e742062616c616e6365000000000000000000000000600082015250565b6000611a24601483611550565b9150611a2f826119ee565b602082019050919050565b60006020820190508181036000830152611a5381611a17565b9050919050565b6000604082019050611a6f6000830185611706565b611a7c6020830184611706565b9392505050565b6000611a8e8261165a565b9150611a998361165a565b9250828201905080821115611ab157611ab061191d565b5b92915050565b7f45524332303a2064656372656173656420616c6c6f77616e63652062656c6f7760008201527f207a65726f000000000000000000000000000000000000000000000000000000602082015250565b6000611b13602583611550565b9150611b1e82611ab7565b604082019050919050565b60006020820190508181036000830152611b4281611b06565b9050919050565b7f4f6e6c79206f776e65722063616e206d696e7420746f6b656e73000000000000600082015250565b6000611b7f601a83611550565b9150611b8a82611b49565b602082019050919050565b60006020820190508181036000830152611bae81611b72565b9050919050565b7f45524332303a20617070726f76652066726f6d20746865207a65726f2061646460008201527f7265737300000000000000000000000000000000000000000000000000000000602082015250565b6000611c11602483611550565b9150611c1c82611bb5565b604082019050919050565b60006020820190508181036000830152611c4081611c04565b9050919050565b7f45524332303a20617070726f766520746f20746865207a65726f20616464726560008201527f7373000000000000000000000000000000000000000000000000000000000000602082015250565b6000611ca3602283611550565b9150611cae82611c47565b604082019050919050565b60006020820190508181036000830152611cd281611c96565b9050919050565b7f45524332303a206275726e2066726f6d20746865207a65726f2061646472657360008201527f7300000000000000000000000000000000000000000000000000000000000000602082015250565b6000611d35602183611550565b9150611d4082611cd9565b604082019050919050565b60006020820190508181036000830152611d6481611d28565b9050919050565b7f45524332303a206275726e20616d6f756e7420657863656564732062616c616e60008201527f6365000000000000000000000000000000000000000000000000000000000000602082015250565b6000611dc7602283611550565b9150611dd282611d6b565b604082019050919050565b60006020820190508181036000830152611df681611dba565b9050919050565b7f45524332303a20696e73756666696369656e7420616c6c6f77616e6365000000600082015250565b6000611e33601d83611550565b9150611e3e82611dfd565b602082019050919050565b60006020820190508181036000830152611e6281611e26565b9050919050565b7f45524332303a207472616e736665722066726f6d20746865207a65726f20616460008201527f6472657373000000000000000000000000000000000000000000000000000000602082015250565b6000611ec5602583611550565b9150611ed082611e69565b604082019050919050565b60006020820190508181036000830152611ef481611eb8565b9050919050565b7f45524332303a207472616e7366657220746f20746865207a65726f206164647260008201527f6573730000000000000000000000000000000000000000000000000000000000602082015250565b6000611f57602383611550565b9150611f6282611efb565b604082019050919050565b60006020820190508181036000830152611f8681611f4a565b9050919050565b7f45524332303a207472616e7366657220616d6f756e742065786365656473206260008201527f616c616e63650000000000000000000000000000000000000000000000000000602082015250565b6000611fe9602683611550565b9150611ff482611f8d565b604082019050919050565b6000602082019050818103600083015261201881611fdc565b9050919050565b7f45524332303a206d696e7420746f20746865207a65726f206164647265737300600082015250565b6000612055601f83611550565b91506120608261201f565b602082019050919050565b6000602082019050818103600083015261208481612048565b9050919050565b7f4e487b7100000000000000000000000000000000000000000000000000000000600052605160045260246000fdfea2646970667358221220ae87adce3d06601a6989293396e5bc97f058d9ac99e16c3ba93eb3d3de11a15b64736f6c63430008180033",
  "linkReferences": {},
  "deployedLinkReferences": {}
}