{
  "_format": "hh-sol-artifact-1",
  "contractName": "LendingPool",
  "sourceName": "contracts/LendingPool.sol",
  "abi": [
    {
      "inputs": [],
      "stateMutability": "nonpayable",
      "type": "constructor"
    },
    {
      "anonymous": false,
      "inputs": [
        {
          "indexed": false,
          "internalType": "address",
          "name": "account",
          "type": "address"
        },
        {
          "indexed": false,
          "internalType": "uint256",
          "name": "balance",
          "type": "uint256"
        }
      ],
      "name": "BalanceAfterDeposit",
      "type": "event"
    },
    {
      "anonymous": false,
      "inputs": [
        {
          "indexed": false,
          "internalType": "address",
          "name": "account",
          "type": "address"
        },
        {
          "indexed": false,
          "internalType": "uint256",
          "name": "balance",
          "type": "uint256"
        }
      ],
      "name": "BalanceAfterWithdrawal",
      "type": "event"
    },
    {
      "anonymous": false,
      "inputs": [
        {
          "indexed": true,
          "internalType": "address",
          "name": "user",
          "type": "address"
        },
        {
          "indexed": false,
          "internalType": "uint256",
          "name": "amount",
          "type": "uint256"
        }
      ],
      "name": "Borrow",
      "type": "event"
    },
    {
      "anonymous": false,
      "inputs": [
        {
          "indexed": true,
          "internalType": "address",
          "name": "user",
          "type": "address"
        },
        {
          "indexed": false,
          "internalType": "uint256",
          "name": "amount",
          "type": "uint256"
        },
        {
          "indexed": false,
          "internalType": "uint256",
          "name": "tokensMinted",
          "type": "uint256"
        }
      ],
      "name": "Deposit",
      "type": "event"
    },
    {
      "anonymous": false,
      "inputs": [
        {
          "indexed": true,
          "internalType": "address",
          "name": "user",
          "type": "address"
        },
        {
          "indexed": false,
          "internalType": "uint256",
          "name": "amount",
          "type": "uint256"
        }
      ],
      "name": "Repay",
      "type": "event"
    },
    {
      "anonymous": false,
      "inputs": [
        {
          "indexed": true,
          "internalType": "address",
          "name": "user",
          "type": "address"
        },
        {
          "indexed": false,
          "internalType": "uint256",
          "name": "amount",
          "type": "uint256"
        }
      ],
      "name": "Withdraw",
      "type": "event"
    },
    {
      "inputs": [
        {
          "internalType": "address",
          "name": "",
          "type": "address"
        }
      ],
      "name": "accruedInterest",
      "outputs": [
        {
          "internalType": "uint256",
          "name": "",
          "type": "uint256"
        }
      ],
      "stateMutability": "view",
      "type": "function"
    },
    {
      "inputs": [
        {
          "internalType": "address",
          "name": "",
          "type": "address"
        }
      ],
      "name": "balances",
      "outputs": [
        {
          "internalType": "uint256",
          "name": "",
          "type": "uint256"
        }
      ],
      "stateMutability": "view",
      "type": "function"
    },
    {
      "inputs": [
        {
          "internalType": "uint256",
          "name": "_amount",
          "type": "uint256"
        }
      ],
      "name": "borrow",
      "outputs": [],
      "stateMutability": "payable",
      "type": "function"
    },
    {
      "inputs": [
        {
          "internalType": "address",
          "name": "",
          "type": "address"
        }
      ],
      "name": "borrowedAmounts",
      "outputs": [
        {
          "internalType": "uint256",
          "name": "",
          "type": "uint256"
        }
      ],
      "stateMutability": "view",
      "type": "function"
    },
    {
      "inputs": [
        {
          "internalType": "address",
          "name": "",
          "type": "address"
        }
      ],
      "name": "collateral",
      "outputs": [
        {
          "internalType": "uint256",
          "name": "",
          "type": "uint256"
        }
      ],
      "stateMutability": "view",
      "type": "function"
    },
    {
      "inputs": [],
      "name": "depositETH",
      "outputs": [],
      "stateMutability": "payable",
      "type": "function"
    },
    {
      "inputs": [
        {
          "internalType": "address",
          "name": "",
          "type": "address"
        }
      ],
      "name": "deposit_timestamp",
      "outputs": [
        {
          "internalType": "uint256",
          "name": "",
          "type": "uint256"
        }
      ],
      "stateMutability": "view",
      "type": "function"
    },
    {
      "inputs": [
        {
          "internalType": "address",
          "name": "",
          "type": "address"
        }
      ],
      "name": "interest_balances",
      "outputs": [
        {
          "internalType": "uint256",
          "name": "",
          "type": "uint256"
        }
      ],
      "stateMutability": "view",
      "type": "function"
    },
    {
      "inputs": [
        {
          "internalType": "address",
          "name": "",
          "type": "address"
        }
      ],
      "name": "isBorrower",
      "outputs": [
        {
          "internalType": "bool",
          "name": "",
          "type": "bool"
        }
      ],
      "stateMutability": "view",
      "type": "function"
    },
    {
      "inputs": [
        {
          "internalType": "address",
          "name": "",
          "type": "address"
        }
      ],
      "name": "isFirstRepay",
      "outputs": [
        {
          "internalType": "bool",
          "name": "",
          "type": "bool"
        }
      ],
      "stateMutability": "view",
      "type": "function"
    },
    {
      "inputs": [],
      "name": "isFirstWithdraw",
      "outputs": [
        {
          "internalType": "bool",
          "name": "",
          "type": "bool"
        }
      ],
      "stateMutability": "view",
      "type": "function"
    },
    {
      "inputs": [],
      "name": "repay",
      "outputs": [],
      "stateMutability": "payable",
      "type": "function"
    },
    {
      "inputs": [
        {
          "internalType": "address",
          "name": "",
          "type": "address"
        }
      ],
      "name": "repayable_interest",
      "outputs": [
        {
          "internalType": "uint256",
          "name": "",
          "type": "uint256"
        }
      ],
      "stateMutability": "view",
      "type": "function"
    },
    {
      "inputs": [
        {
          "internalType": "address",
          "name": "",
          "type": "address"
        }
      ],
      "name": "timestamp_borrow",
      "outputs": [
        {
          "internalType": "uint256",
          "name": "",
          "type": "uint256"
        }
      ],
      "stateMutability": "view",
      "type": "function"
    },
    {
      "inputs": [],
      "name": "token",
      "outputs": [
        {
          "internalType": "contract ATokenETH",
          "name": "",
          "type": "address"
        }
      ],
      "stateMutability": "view",
      "type": "function"
    },
    {
      "inputs": [],
      "name": "totalDeposits",
      "outputs": [
        {
          "internalType": "uint256",
          "name": "",
          "type": "uint256"
        }
      ],
      "stateMutability": "view",
      "type": "function"
    },
    {
      "inputs": [
        {
          "internalType": "uint256",
          "name": "_amount",
          "type": "uint256"
        }
      ],
      "name": "withdraw",
      "outputs": [],
      "stateMutability": "payable",
      "type": "function"
    },
    {
      "inputs": [
        {
          "internalType": "address",
          "name": "",
          "type": "address"
        }
      ],
      "name": "withdrawInterest",
      "outputs": [
        {
          "internalType": "uint256",
          "name": "",
          "type": "uint256"
        }
      ],
      "stateMutability": "view",
      "type": "function"
    }
  ],
  "bytecode": "0x60806040523480156200001157600080fd5b50604051620000209062000084565b604051809103906000f0801580156200003d573d6000803e3d6000fd5b50600d60006101000a81548173ffffffffffffffffffffffffffffffffffffffff021916908373ffffffffffffffffffffffffffffffffffffffff16021790555062000092565b6125ef806200268283390190565b6125e080620000a26000396000f3fe6080604052600436106101095760003560e01c806377267ec311610095578063c5ebeaec11610064578063c5ebeaec146103af578063eaf6e483146103cb578063ec83162d14610408578063f6326fb314610445578063fc0c546a1461044f57610109565b806377267ec3146102cd5780637d8820971461030a578063a5fdc5de14610335578063af45f3221461037257610109565b80633df16a01116100dc5780633df16a01146101e1578063402d88831461021e578063478230f7146102285780636677e81c14610265578063749667821461029057610109565b8063062a2a5d1461010e57806327e235e31461014b5780632e1a7d4d1461018857806333352b51146101a4575b600080fd5b34801561011a57600080fd5b5061013560048036038101906101309190611f6d565b61047a565b6040516101429190611fb3565b60405180910390f35b34801561015757600080fd5b50610172600480360381019061016d9190611f6d565b610492565b60405161017f9190611fb3565b60405180910390f35b6101a2600480360381019061019d9190611ffa565b6104aa565b005b3480156101b057600080fd5b506101cb60048036038101906101c69190611f6d565b610b92565b6040516101d89190612042565b60405180910390f35b3480156101ed57600080fd5b5061020860048036038101906102039190611f6d565b610bb2565b6040516102159190611fb3565b60405180910390f35b610226610bca565b005b34801561023457600080fd5b5061024f600480360381019061024a9190611f6d565b6113e2565b60405161025c9190611fb3565b60405180910390f35b34801561027157600080fd5b5061027a6113fa565b6040516102879190612042565b60405180910390f35b34801561029c57600080fd5b506102b760048036038101906102b29190611f6d565b61140d565b6040516102c49190611fb3565b60405180910390f35b3480156102d957600080fd5b506102f460048036038101906102ef9190611f6d565b611425565b6040516103019190611fb3565b60405180910390f35b34801561031657600080fd5b5061031f61143d565b60405161032c9190611fb3565b60405180910390f35b34801561034157600080fd5b5061035c60048036038101906103579190611f6d565b611443565b6040516103699190611fb3565b60405180910390f35b34801561037e57600080fd5b5061039960048036038101906103949190611f6d565b61145b565b6040516103a69190611fb3565b60405180910390f35b6103c960048036038101906103c49190611ffa565b611473565b005b3480156103d757600080fd5b506103f260048036038101906103ed9190611f6d565b6117d7565b6040516103ff9190612042565b60405180910390f35b34801561041457600080fd5b5061042f600480360381019061042a9190611f6d565b6117f7565b60405161043c9190611fb3565b60405180910390f35b61044d61180f565b005b34801561045b57600080fd5b50610464611d62565b60405161047191906120bc565b60405180910390f35b60046020528060005260406000206000915090505481565b60006020528060005260406000206000915090505481565b6104f16000803373ffffffffffffffffffffffffffffffffffffffff1673ffffffffffffffffffffffffffffffffffffffff16815260200190815260200160002054611d88565b806000803373ffffffffffffffffffffffffffffffffffffffff1673ffffffffffffffffffffffffffffffffffffffff168152602001908152602001600020541015610572576040517f08c379a000000000000000000000000000000000000000000000000000000000815260040161056990612134565b60405180910390fd5b600b60009054906101000a900460ff16156107ef57600960003373ffffffffffffffffffffffffffffffffffffffff1673ffffffffffffffffffffffffffffffffffffffff16815260200190815260200160002054426105d29190612183565b600a60003373ffffffffffffffffffffffffffffffffffffffff1673ffffffffffffffffffffffffffffffffffffffff1681526020019081526020016000205461061c91906121b7565b600c60003373ffffffffffffffffffffffffffffffffffffffff1673ffffffffffffffffffffffffffffffffffffffff168152602001908152602001600020819055503373ffffffffffffffffffffffffffffffffffffffff166108fc600c60003373ffffffffffffffffffffffffffffffffffffffff1673ffffffffffffffffffffffffffffffffffffffff16815260200190815260200160002054836106c491906121b7565b9081150290604051600060405180830381858888f193505050501580156106ef573d6000803e3d6000fd5b506000600c60003373ffffffffffffffffffffffffffffffffffffffff1673ffffffffffffffffffffffffffffffffffffffff1681526020019081526020016000208190555042600960003373ffffffffffffffffffffffffffffffffffffffff1673ffffffffffffffffffffffffffffffffffffffff1681526020019081526020016000208190555080600860003373ffffffffffffffffffffffffffffffffffffffff1673ffffffffffffffffffffffffffffffffffffffff16815260200190815260200160002060008282546107c89190612183565b925050819055506000600b60006101000a81548160ff0219169083151502179055506109fd565b600b60009054906101000a900460ff1615801561084a575080600860003373ffffffffffffffffffffffffffffffffffffffff1673ffffffffffffffffffffffffffffffffffffffff16815260200190815260200160002054115b156109fc57600960003373ffffffffffffffffffffffffffffffffffffffff1673ffffffffffffffffffffffffffffffffffffffff168152602001908152602001600020544261089a9190612183565b600c60003373ffffffffffffffffffffffffffffffffffffffff1673ffffffffffffffffffffffffffffffffffffffff16815260200190815260200160002081905550610925600c60003373ffffffffffffffffffffffffffffffffffffffff1673ffffffffffffffffffffffffffffffffffffffff16815260200190815260200160002054611d88565b3373ffffffffffffffffffffffffffffffffffffffff166108fc600c60003373ffffffffffffffffffffffffffffffffffffffff1673ffffffffffffffffffffffffffffffffffffffff168152602001908152602001600020548361098a91906121b7565b9081150290604051600060405180830381858888f193505050501580156109b5573d6000803e3d6000fd5b506000600c60003373ffffffffffffffffffffffffffffffffffffffff1673ffffffffffffffffffffffffffffffffffffffff168152602001908152602001600020819055505b5b610a446000803373ffffffffffffffffffffffffffffffffffffffff1673ffffffffffffffffffffffffffffffffffffffff16815260200190815260200160002054611d88565b600d60009054906101000a900473ffffffffffffffffffffffffffffffffffffffff1673ffffffffffffffffffffffffffffffffffffffff16630d1118ce33836040518363ffffffff1660e01b8152600401610aa19291906121fa565b600060405180830381600087803b158015610abb57600080fd5b505af1158015610acf573d6000803e3d6000fd5b50505050806000803373ffffffffffffffffffffffffffffffffffffffff1673ffffffffffffffffffffffffffffffffffffffff1681526020019081526020016000206000828254610b219190612183565b925050819055508060076000828254610b3a9190612183565b925050819055503373ffffffffffffffffffffffffffffffffffffffff167f884edad9ce6fa2440d8a54cc123490eb96d2768479d49ff9c7366125a942436482604051610b879190611fb3565b60405180910390a250565b60056020528060005260406000206000915054906101000a900460ff1681565b60086020528060005260406000206000915090505481565b600360003373ffffffffffffffffffffffffffffffffffffffff1673ffffffffffffffffffffffffffffffffffffffff16815260200190815260200160002060009054906101000a900460ff16610c56576040517f08c379a0000000000000000000000000000000000000000000000000000000008152600401610c4d9061226f565b60405180910390fd5b6000429050610c996040518060400160405280601881526020017f426f72726f7765642061742074696d657374616d70203a200000000000000000815250611e21565b610ce1600460003373ffffffffffffffffffffffffffffffffffffffff1673ffffffffffffffffffffffffffffffffffffffff16815260200190815260200160002054611d88565b600560003373ffffffffffffffffffffffffffffffffffffffff1673ffffffffffffffffffffffffffffffffffffffff16815260200190815260200160002060009054906101000a900460ff1615610dd1576000600660003373ffffffffffffffffffffffffffffffffffffffff1673ffffffffffffffffffffffffffffffffffffffff168152602001908152602001600020819055506000600560003373ffffffffffffffffffffffffffffffffffffffff1673ffffffffffffffffffffffffffffffffffffffff16815260200190815260200160002060006101000a81548160ff0219169083151502179055505b600460003373ffffffffffffffffffffffffffffffffffffffff1673ffffffffffffffffffffffffffffffffffffffff1681526020019081526020016000205481610e1c9190612183565b600660003373ffffffffffffffffffffffffffffffffffffffff1673ffffffffffffffffffffffffffffffffffffffff1681526020019081526020016000206000828254610e6a91906121b7565b92505081905550610eaf6040518060400160405280600b81526020017f496e746572657374203a20000000000000000000000000000000000000000000815250611e21565b610ef7600660003373ffffffffffffffffffffffffffffffffffffffff1673ffffffffffffffffffffffffffffffffffffffff16815260200190815260200160002054611d88565b6000600260003373ffffffffffffffffffffffffffffffffffffffff1673ffffffffffffffffffffffffffffffffffffffff16815260200190815260200160002054600660003373ffffffffffffffffffffffffffffffffffffffff1673ffffffffffffffffffffffffffffffffffffffff16815260200190815260200160002054610f8391906121b7565b905081600460003373ffffffffffffffffffffffffffffffffffffffff1673ffffffffffffffffffffffffffffffffffffffff168152602001908152602001600020819055508034106111ef576000600360003373ffffffffffffffffffffffffffffffffffffffff1673ffffffffffffffffffffffffffffffffffffffff16815260200190815260200160002060006101000a81548160ff02191690831515021790555080341115611147573373ffffffffffffffffffffffffffffffffffffffff166108fc600160003373ffffffffffffffffffffffffffffffffffffffff1673ffffffffffffffffffffffffffffffffffffffff1681526020019081526020016000205483346110969190612183565b6110a091906121b7565b9081150290604051600060405180830381858888f193505050501580156110cb573d6000803e3d6000fd5b506000600160003373ffffffffffffffffffffffffffffffffffffffff1673ffffffffffffffffffffffffffffffffffffffff1681526020019081526020016000208190555061113260405180606001604052806026815260200161258560269139611e21565b61114681346111419190612183565b611d88565b5b806007600082825461115991906121b7565b925050819055506000600260003373ffffffffffffffffffffffffffffffffffffffff1673ffffffffffffffffffffffffffffffffffffffff168152602001908152602001600020819055506000600660003373ffffffffffffffffffffffffffffffffffffffff1673ffffffffffffffffffffffffffffffffffffffff16815260200190815260200160002081905550611390565b34600660003373ffffffffffffffffffffffffffffffffffffffff1673ffffffffffffffffffffffffffffffffffffffff168152602001908152602001600020541161131f57600660003373ffffffffffffffffffffffffffffffffffffffff1673ffffffffffffffffffffffffffffffffffffffff16815260200190815260200160002054346112809190612183565b600260003373ffffffffffffffffffffffffffffffffffffffff1673ffffffffffffffffffffffffffffffffffffffff16815260200190815260200160002060008282546112ce9190612183565b925050819055506000600660003373ffffffffffffffffffffffffffffffffffffffff1673ffffffffffffffffffffffffffffffffffffffff16815260200190815260200160002081905550611376565b34600660003373ffffffffffffffffffffffffffffffffffffffff1673ffffffffffffffffffffffffffffffffffffffff168152602001908152602001600020600082825461136e9190612183565b925050819055505b346007600082825461138891906121b7565b925050819055505b3373ffffffffffffffffffffffffffffffffffffffff167f5c16de4f8b59bd9caf0f49a545f25819a895ed223294290b408242e72a594231346040516113d69190611fb3565b60405180910390a25050565b60026020528060005260406000206000915090505481565b600b60009054906101000a900460ff1681565b60066020528060005260406000206000915090505481565b600a6020528060005260406000206000915090505481565b60075481565b60016020528060005260406000206000915090505481565b600c6020528060005260406000206000915090505481565b600360003373ffffffffffffffffffffffffffffffffffffffff1673ffffffffffffffffffffffffffffffffffffffff16815260200190815260200160002060009054906101000a900460ff1615611500576040517f08c379a00000000000000000000000000000000000000000000000000000000081526004016114f790612301565b60405180910390fd5b8060075411611544576040517f08c379a000000000000000000000000000000000000000000000000000000000815260040161153b9061236d565b60405180910390fd5b803411611586576040517f08c379a000000000000000000000000000000000000000000000000000000000815260040161157d906123ff565b60405180910390fd5b42600460003373ffffffffffffffffffffffffffffffffffffffff1673ffffffffffffffffffffffffffffffffffffffff1681526020019081526020016000208190555034600160003373ffffffffffffffffffffffffffffffffffffffff1673ffffffffffffffffffffffffffffffffffffffff168152602001908152602001600020600082825461161991906121b7565b9250508190555080600260003373ffffffffffffffffffffffffffffffffffffffff1673ffffffffffffffffffffffffffffffffffffffff168152602001908152602001600020600082825461166f91906121b7565b925050819055506001600360003373ffffffffffffffffffffffffffffffffffffffff1673ffffffffffffffffffffffffffffffffffffffff16815260200190815260200160002060006101000a81548160ff0219169083151502179055506001600560003373ffffffffffffffffffffffffffffffffffffffff1673ffffffffffffffffffffffffffffffffffffffff16815260200190815260200160002060006101000a81548160ff02191690831515021790555080600760008282546117389190612183565b925050819055503373ffffffffffffffffffffffffffffffffffffffff166108fc829081150290604051600060405180830381858888f19350505050158015611785573d6000803e3d6000fd5b503373ffffffffffffffffffffffffffffffffffffffff167fcbc04eca7e9da35cb1393a6135a199ca52e450d5e9251cbd99f7847d33a36750826040516117cc9190611fb3565b60405180910390a250565b60036020528060005260406000206000915054906101000a900460ff1681565b60096020528060005260406000206000915090505481565b600034905060008111611857576040517f08c379a000000000000000000000000000000000000000000000000000000000815260040161184e9061246b565b60405180910390fd5b600d60009054906101000a900473ffffffffffffffffffffffffffffffffffffffff1673ffffffffffffffffffffffffffffffffffffffff1663f0dda65c33836040518363ffffffff1660e01b81526004016118b49291906121fa565b600060405180830381600087803b1580156118ce57600080fd5b505af11580156118e2573d6000803e3d6000fd5b50505050806000803373ffffffffffffffffffffffffffffffffffffffff1673ffffffffffffffffffffffffffffffffffffffff168152602001908152602001600020600082825461193491906121b7565b92505081905550806007600082825461194d91906121b7565b92505081905550806000803373ffffffffffffffffffffffffffffffffffffffff1673ffffffffffffffffffffffffffffffffffffffff1681526020019081526020016000205403611a86576001600b60006101000a81548160ff02191690831515021790555042600960003373ffffffffffffffffffffffffffffffffffffffff1673ffffffffffffffffffffffffffffffffffffffff168152602001908152602001600020819055506000600a60003373ffffffffffffffffffffffffffffffffffffffff1673ffffffffffffffffffffffffffffffffffffffff1681526020019081526020016000208190555080600860003373ffffffffffffffffffffffffffffffffffffffff1673ffffffffffffffffffffffffffffffffffffffff16815260200190815260200160002081905550611bc1565b600960003373ffffffffffffffffffffffffffffffffffffffff1673ffffffffffffffffffffffffffffffffffffffff1681526020019081526020016000205442611ad19190612183565b600a60003373ffffffffffffffffffffffffffffffffffffffff1673ffffffffffffffffffffffffffffffffffffffff1681526020019081526020016000206000828254611b1f91906121b7565b9250508190555042600960003373ffffffffffffffffffffffffffffffffffffffff1673ffffffffffffffffffffffffffffffffffffffff1681526020019081526020016000208190555080600860003373ffffffffffffffffffffffffffffffffffffffff1673ffffffffffffffffffffffffffffffffffffffff1681526020019081526020016000206000828254611bb991906121b7565b925050819055505b611c086000803373ffffffffffffffffffffffffffffffffffffffff1673ffffffffffffffffffffffffffffffffffffffff16815260200190815260200160002054611d88565b611c50600960003373ffffffffffffffffffffffffffffffffffffffff1673ffffffffffffffffffffffffffffffffffffffff16815260200190815260200160002054611d88565b611c98600a60003373ffffffffffffffffffffffffffffffffffffffff1673ffffffffffffffffffffffffffffffffffffffff16815260200190815260200160002054611d88565b3373ffffffffffffffffffffffffffffffffffffffff167f90890809c654f11d6e72a28fa60149770a0d11ec6c92319d6ceb2bb0a4ea1a158283604051611ce092919061248b565b60405180910390a27fdeaf03adaa870bd18d29c07613b960326f8b269698f66bb8c2e9efc5ae46705e336000803373ffffffffffffffffffffffffffffffffffffffff1673ffffffffffffffffffffffffffffffffffffffff16815260200190815260200160002054604051611d579291906121fa565b60405180910390a150565b600d60009054906101000a900473ffffffffffffffffffffffffffffffffffffffff1681565b611e1e81604051602401611d9c9190611fb3565b6040516020818303038152906040527ff82c50f1000000000000000000000000000000000000000000000000000000007bffffffffffffffffffffffffffffffffffffffffffffffffffffffff19166020820180517bffffffffffffffffffffffffffffffffffffffffffffffffffffffff8381831617835250505050611eba565b50565b611eb781604051602401611e359190612533565b6040516020818303038152906040527f41304fac000000000000000000000000000000000000000000000000000000007bffffffffffffffffffffffffffffffffffffffffffffffffffffffff19166020820180517bffffffffffffffffffffffffffffffffffffffffffffffffffffffff8381831617835250505050611eba565b50565b611ed181611ec9611ed4611ef5565b63ffffffff16565b50565b60006a636f6e736f6c652e6c6f679050600080835160208501845afa505050565b611f00819050919050565b611f08612555565b565b600080fd5b600073ffffffffffffffffffffffffffffffffffffffff82169050919050565b6000611f3a82611f0f565b9050919050565b611f4a81611f2f565b8114611f5557600080fd5b50565b600081359050611f6781611f41565b92915050565b600060208284031215611f8357611f82611f0a565b5b6000611f9184828501611f58565b91505092915050565b6000819050919050565b611fad81611f9a565b82525050565b6000602082019050611fc86000830184611fa4565b92915050565b611fd781611f9a565b8114611fe257600080fd5b50565b600081359050611ff481611fce565b92915050565b6000602082840312156120105761200f611f0a565b5b600061201e84828501611fe5565b91505092915050565b60008115159050919050565b61203c81612027565b82525050565b60006020820190506120576000830184612033565b92915050565b6000819050919050565b600061208261207d61207884611f0f565b61205d565b611f0f565b9050919050565b600061209482612067565b9050919050565b60006120a682612089565b9050919050565b6120b68161209b565b82525050565b60006020820190506120d160008301846120ad565b92915050565b600082825260208201905092915050565b7f496e73756666696369656e742062616c616e6365000000000000000000000000600082015250565b600061211e6014836120d7565b9150612129826120e8565b602082019050919050565b6000602082019050818103600083015261214d81612111565b9050919050565b7f4e487b7100000000000000000000000000000000000000000000000000000000600052601160045260246000fd5b600061218e82611f9a565b915061219983611f9a565b92508282039050818111156121b1576121b0612154565b5b92915050565b60006121c282611f9a565b91506121cd83611f9a565b92508282019050808211156121e5576121e4612154565b5b92915050565b6121f481611f2f565b82525050565b600060408201905061220f60008301856121eb565b61221c6020830184611fa4565b9392505050565b7f596f752068617665206e6f7420626f72726f77656420616e792066756e647321600082015250565b60006122596020836120d7565b915061226482612223565b602082019050919050565b600060208201905081810360008301526122888161224c565b9050919050565b7f596f75206861766520616c726561647920626f72726f7765642066756e64732160008201527f20436c656172204465627420546f20626f72726f7720616761696e2100000000602082015250565b60006122eb603c836120d7565b91506122f68261228f565b604082019050919050565b6000602082019050818103600083015261231a816122de565b9050919050565b7f4e6f7420456e6f7567682046756e647300000000000000000000000000000000600082015250565b60006123576010836120d7565b915061236282612321565b602082019050919050565b600060208201905081810360008301526123868161234a565b9050919050565b7f50726f7669646520436f6c6c61746572616c20546f20636f6e74696e7565207460008201527f6865207472616e73616374696f6e000000000000000000000000000000000000602082015250565b60006123e9602e836120d7565b91506123f48261238d565b604082019050919050565b60006020820190508181036000830152612418816123dc565b9050919050565b7f416d6f756e74206d7573742062652067726561746572207468616e2030000000600082015250565b6000612455601d836120d7565b91506124608261241f565b602082019050919050565b6000602082019050818103600083015261248481612448565b9050919050565b60006040820190506124a06000830185611fa4565b6124ad6020830184611fa4565b9392505050565b600081519050919050565b60005b838110156124dd5780820151818401526020810190506124c2565b60008484015250505050565b6000601f19601f8301169050919050565b6000612505826124b4565b61250f81856120d7565b935061251f8185602086016124bf565b612528816124e9565b840191505092915050565b6000602082019050818103600083015261254d81846124fa565b905092915050565b7f4e487b7100000000000000000000000000000000000000000000000000000000600052605160045260246000fdfe53656e74204261636b206578636573732046756e647320616e6420436f6c6c61746572616c21a26469706673582212209512f82bdccc473802f5c0fc1f4bf850b791e618b39ad936d25bcabf5195a9c164736f6c6343000818003360806040523480156200001157600080fd5b506040518060400160405280600f81526020017f61546f6b656e20457468657265756d00000000000000000000000000000000008152506040518060400160405280600881526020017f616e65773145544800000000000000000000000000000000000000000000000081525081600390816200008f9190620003a1565b508060049081620000a19190620003a1565b50505033600560006101000a81548173ffffffffffffffffffffffffffffffffffffffff021916908373ffffffffffffffffffffffffffffffffffffffff16021790555068abf1fbd3eca73f00006ec097ce7bc90715b34b9f10000000006200010b9190620004b7565b6006819055506804cc99bdf2ad550000600781905550620004ef565b600081519050919050565b7f4e487b7100000000000000000000000000000000000000000000000000000000600052604160045260246000fd5b7f4e487b7100000000000000000000000000000000000000000000000000000000600052602260045260246000fd5b60006002820490506001821680620001a957607f821691505b602082108103620001bf57620001be62000161565b5b50919050565b60008190508160005260206000209050919050565b60006020601f8301049050919050565b600082821b905092915050565b600060088302620002297fffffffffffffffffffffffffffffffffffffffffffffffffffffffffffffffff82620001ea565b620002358683620001ea565b95508019841693508086168417925050509392505050565b6000819050919050565b6000819050919050565b6000620002826200027c62000276846200024d565b62000257565b6200024d565b9050919050565b6000819050919050565b6200029e8362000261565b620002b6620002ad8262000289565b848454620001f7565b825550505050565b600090565b620002cd620002be565b620002da81848462000293565b505050565b5b818110156200030257620002f6600082620002c3565b600181019050620002e0565b5050565b601f82111562000351576200031b81620001c5565b6200032684620001da565b8101602085101562000336578190505b6200034e6200034585620001da565b830182620002df565b50505b505050565b600082821c905092915050565b6000620003766000198460080262000356565b1980831691505092915050565b600062000391838362000363565b9150826002028217905092915050565b620003ac8262000127565b67ffffffffffffffff811115620003c857620003c762000132565b5b620003d4825462000190565b620003e182828562000306565b600060209050601f83116001811462000419576000841562000404578287015190505b62000410858262000383565b86555062000480565b601f1984166200042986620001c5565b60005b8281101562000453578489015182556001820191506020850194506020810190506200042c565b868310156200047357848901516200046f601f89168262000363565b8355505b6001600288020188555050505b505050505050565b7f4e487b7100000000000000000000000000000000000000000000000000000000600052601260045260246000fd5b6000620004c4826200024d565b9150620004d1836200024d565b925082620004e457620004e362000488565b5b828204905092915050565b6120f080620004ff6000396000f3fe6080604052600436106100f35760003560e01c806370a082311161008a578063a9059cbb11610059578063a9059cbb14610347578063ab4766e814610384578063dd62ed3e146103af578063f0dda65c146103ec576100f3565b806370a08231146102775780638da5cb5b146102b457806395d89b41146102df578063a457c2d71461030a576100f3565b806323b872dd116100c657806323b872dd146101a7578063313ce567146101e4578063395093511461020f57806342e8dc891461024c576100f3565b806306fdde03146100f8578063095ea7b3146101235780630d1118ce1461016057806318160ddd1461017c575b600080fd5b34801561010457600080fd5b5061010d610415565b60405161011a91906115d5565b60405180910390f35b34801561012f57600080fd5b5061014a60048036038101906101459190611690565b6104a7565b60405161015791906116eb565b60405180910390f35b61017a60048036038101906101759190611690565b6104ca565b005b34801561018857600080fd5b50610191610707565b60405161019e9190611715565b60405180910390f35b3480156101b357600080fd5b506101ce60048036038101906101c99190611730565b610711565b6040516101db91906116eb565b60405180910390f35b3480156101f057600080fd5b506101f9610740565b604051610206919061179f565b60405180910390f35b34801561021b57600080fd5b5061023660048036038101906102319190611690565b610749565b60405161024391906116eb565b60405180910390f35b34801561025857600080fd5b50610261610780565b60405161026e9190611715565b60405180910390f35b34801561028357600080fd5b5061029e600480360381019061029991906117ba565b610786565b6040516102ab9190611715565b60405180910390f35b3480156102c057600080fd5b506102c96107ce565b6040516102d691906117f6565b60405180910390f35b3480156102eb57600080fd5b506102f46107f4565b60405161030191906115d5565b60405180910390f35b34801561031657600080fd5b50610331600480360381019061032c9190611690565b610886565b60405161033e91906116eb565b60405180910390f35b34801561035357600080fd5b5061036e60048036038101906103699190611690565b6108fd565b60405161037b91906116eb565b60405180910390f35b34801561039057600080fd5b50610399610920565b6040516103a69190611715565b60405180910390f35b3480156103bb57600080fd5b506103d660048036038101906103d19190611811565b610926565b6040516103e39190611715565b60405180910390f35b3480156103f857600080fd5b50610413600480360381019061040e9190611690565b6109ad565b005b60606003805461042490611880565b80601f016020809104026020016040519081016040528092919081815260200182805461045090611880565b801561049d5780601f106104725761010080835404028352916020019161049d565b820191906000526020600020905b81548152906001019060200180831161048057829003601f168201915b5050505050905090565b6000806104b2610b2a565b90506104bf818585610b32565b600191505092915050565b6104db6104d683610786565b610cfb565b600560009054906101000a900473ffffffffffffffffffffffffffffffffffffffff1673ffffffffffffffffffffffffffffffffffffffff163373ffffffffffffffffffffffffffffffffffffffff161461056b576040517f08c379a0000000000000000000000000000000000000000000000000000000008152600401610562906118fd565b60405180910390fd5b6000600754670de0b6b3a764000060065484610587919061194c565b610591919061194c565b61059b91906119bd565b90506105a681610cfb565b806105b084610786565b10156105f1576040517f08c379a00000000000000000000000000000000000000000000000000000000081526004016105e890611a3a565b60405180910390fd5b6105fb8382610d94565b61060433610f61565b61060d83610f61565b61064b6040518060400160405280600781526020017f42616c616e636500000000000000000000000000000000000000000000000000815250610ffa565b61066b8373ffffffffffffffffffffffffffffffffffffffff1631610cfb565b6106a96040518060400160405280600881526020017f416d6f756e74203a000000000000000000000000000000000000000000000000815250610ffa565b6106b282610cfb565b8273ffffffffffffffffffffffffffffffffffffffff167fccbea4088a3b7ae9ca2d15fab9a9742a4075b4d7247768a1eecea917565aba0083836040516106fa929190611a5a565b60405180910390a2505050565b6000600254905090565b60008061071c610b2a565b9050610729858285611093565b61073485858561111f565b60019150509392505050565b60006012905090565b600080610754610b2a565b90506107758185856107668589610926565b6107709190611a83565b610b32565b600191505092915050565b60075481565b60008060008373ffffffffffffffffffffffffffffffffffffffff1673ffffffffffffffffffffffffffffffffffffffff168152602001908152602001600020549050919050565b600560009054906101000a900473ffffffffffffffffffffffffffffffffffffffff1681565b60606004805461080390611880565b80601f016020809104026020016040519081016040528092919081815260200182805461082f90611880565b801561087c5780601f106108515761010080835404028352916020019161087c565b820191906000526020600020905b81548152906001019060200180831161085f57829003601f168201915b5050505050905090565b600080610891610b2a565b9050600061089f8286610926565b9050838110156108e4576040517f08c379a00000000000000000000000000000000000000000000000000000000081526004016108db90611b29565b60405180910390fd5b6108f18286868403610b32565b60019250505092915050565b600080610908610b2a565b905061091581858561111f565b600191505092915050565b60065481565b6000600160008473ffffffffffffffffffffffffffffffffffffffff1673ffffffffffffffffffffffffffffffffffffffff16815260200190815260200160002060008373ffffffffffffffffffffffffffffffffffffffff1673ffffffffffffffffffffffffffffffffffffffff16815260200190815260200160002054905092915050565b600560009054906101000a900473ffffffffffffffffffffffffffffffffffffffff1673ffffffffffffffffffffffffffffffffffffffff163373ffffffffffffffffffffffffffffffffffffffff1614610a3d576040517f08c379a0000000000000000000000000000000000000000000000000000000008152600401610a3490611b95565b60405180910390fd5b6000600754670de0b6b3a764000060065484610a59919061194c565b610a63919061194c565b610a6d91906119bd565b9050610a798382611395565b6000610a8484610786565b90508373ffffffffffffffffffffffffffffffffffffffff167fb0750f6c39be925832beb4b2ee749481dc9e87e71e38e643dc1c7742c5f8aba282604051610acc9190611715565b60405180910390a28373ffffffffffffffffffffffffffffffffffffffff167f2e8ac5177a616f2aec08c3048f5021e4e9743ece034e8d83ba5caf76688bb4758484604051610b1c929190611a5a565b60405180910390a250505050565b600033905090565b600073ffffffffffffffffffffffffffffffffffffffff168373ffffffffffffffffffffffffffffffffffffffff1603610ba1576040517f08c379a0000000000000000000000000000000000000000000000000000000008152600401610b9890611c27565b60405180910390fd5b600073ffffffffffffffffffffffffffffffffffffffff168273ffffffffffffffffffffffffffffffffffffffff1603610c10576040517f08c379a0000000000000000000000000000000000000000000000000000000008152600401610c0790611cb9565b60405180910390fd5b80600160008573ffffffffffffffffffffffffffffffffffffffff1673ffffffffffffffffffffffffffffffffffffffff16815260200190815260200160002060008473ffffffffffffffffffffffffffffffffffffffff1673ffffffffffffffffffffffffffffffffffffffff168152602001908152602001600020819055508173ffffffffffffffffffffffffffffffffffffffff168373ffffffffffffffffffffffffffffffffffffffff167f8c5be1e5ebec7d5bd14f71427d1e84f3dd0314c0f7b2291e5b200ac8c7c3b92583604051610cee9190611715565b60405180910390a3505050565b610d9181604051602401610d0f9190611715565b6040516020818303038152906040527ff82c50f1000000000000000000000000000000000000000000000000000000007bffffffffffffffffffffffffffffffffffffffffffffffffffffffff19166020820180517bffffffffffffffffffffffffffffffffffffffffffffffffffffffff83818316178352505050506114eb565b50565b600073ffffffffffffffffffffffffffffffffffffffff168273ffffffffffffffffffffffffffffffffffffffff1603610e03576040517f08c379a0000000000000000000000000000000000000000000000000000000008152600401610dfa90611d4b565b60405180910390fd5b610e0f82600083611505565b60008060008473ffffffffffffffffffffffffffffffffffffffff1673ffffffffffffffffffffffffffffffffffffffff16815260200190815260200160002054905081811015610e95576040517f08c379a0000000000000000000000000000000000000000000000000000000008152600401610e8c90611ddd565b60405180910390fd5b8181036000808573ffffffffffffffffffffffffffffffffffffffff1673ffffffffffffffffffffffffffffffffffffffff1681526020019081526020016000208190555081600260008282540392505081905550600073ffffffffffffffffffffffffffffffffffffffff168373ffffffffffffffffffffffffffffffffffffffff167fddf252ad1be2c89b69c2b068fc378daa952ba7f163c4a11628f55a4df523b3ef84604051610f489190611715565b60405180910390a3610f5c8360008461150a565b505050565b610ff781604051602401610f7591906117f6565b6040516020818303038152906040527f2c2ecbc2000000000000000000000000000000000000000000000000000000007bffffffffffffffffffffffffffffffffffffffffffffffffffffffff19166020820180517bffffffffffffffffffffffffffffffffffffffffffffffffffffffff83818316178352505050506114eb565b50565b6110908160405160240161100e91906115d5565b6040516020818303038152906040527f41304fac000000000000000000000000000000000000000000000000000000007bffffffffffffffffffffffffffffffffffffffffffffffffffffffff19166020820180517bffffffffffffffffffffffffffffffffffffffffffffffffffffffff83818316178352505050506114eb565b50565b600061109f8484610926565b90507fffffffffffffffffffffffffffffffffffffffffffffffffffffffffffffffff8114611119578181101561110b576040517f08c379a000000000000000000000000000000000000000000000000000000000815260040161110290611e49565b60405180910390fd5b6111188484848403610b32565b5b50505050565b600073ffffffffffffffffffffffffffffffffffffffff168373ffffffffffffffffffffffffffffffffffffffff160361118e576040517f08c379a000000000000000000000000000000000000000000000000000000000815260040161118590611edb565b60405180910390fd5b600073ffffffffffffffffffffffffffffffffffffffff168273ffffffffffffffffffffffffffffffffffffffff16036111fd576040517f08c379a00000000000000000000000000000000000000000000000000000000081526004016111f490611f6d565b60405180910390fd5b611208838383611505565b60008060008573ffffffffffffffffffffffffffffffffffffffff1673ffffffffffffffffffffffffffffffffffffffff1681526020019081526020016000205490508181101561128e576040517f08c379a000000000000000000000000000000000000000000000000000000000815260040161128590611fff565b60405180910390fd5b8181036000808673ffffffffffffffffffffffffffffffffffffffff1673ffffffffffffffffffffffffffffffffffffffff16815260200190815260200160002081905550816000808573ffffffffffffffffffffffffffffffffffffffff1673ffffffffffffffffffffffffffffffffffffffff168152602001908152602001600020600082825401925050819055508273ffffffffffffffffffffffffffffffffffffffff168473ffffffffffffffffffffffffffffffffffffffff167fddf252ad1be2c89b69c2b068fc378daa952ba7f163c4a11628f55a4df523b3ef8460405161137c9190611715565b60405180910390a361138f84848461150a565b50505050565b600073ffffffffffffffffffffffffffffffffffffffff168273ffffffffffffffffffffffffffffffffffffffff1603611404576040517f08c379a00000000000000000000000000000000000000000000000000000000081526004016113fb9061206b565b60405180910390fd5b61141060008383611505565b80600260008282546114229190611a83565b92505081905550806000808473ffffffffffffffffffffffffffffffffffffffff1673ffffffffffffffffffffffffffffffffffffffff168152602001908152602001600020600082825401925050819055508173ffffffffffffffffffffffffffffffffffffffff16600073ffffffffffffffffffffffffffffffffffffffff167fddf252ad1be2c89b69c2b068fc378daa952ba7f163c4a11628f55a4df523b3ef836040516114d39190611715565b60405180910390a36114e76000838361150a565b5050565b611502816114fa61150f611530565b63ffffffff16565b50565b505050565b505050565b60006a636f6e736f6c652e6c6f679050600080835160208501845afa505050565b61153b819050919050565b61154361208b565b565b600081519050919050565b600082825260208201905092915050565b60005b8381101561157f578082015181840152602081019050611564565b60008484015250505050565b6000601f19601f8301169050919050565b60006115a782611545565b6115b18185611550565b93506115c1818560208601611561565b6115ca8161158b565b840191505092915050565b600060208201905081810360008301526115ef818461159c565b905092915050565b600080fd5b600073ffffffffffffffffffffffffffffffffffffffff82169050919050565b6000611627826115fc565b9050919050565b6116378161161c565b811461164257600080fd5b50565b6000813590506116548161162e565b92915050565b6000819050919050565b61166d8161165a565b811461167857600080fd5b50565b60008135905061168a81611664565b92915050565b600080604083850312156116a7576116a66115f7565b5b60006116b585828601611645565b92505060206116c68582860161167b565b9150509250929050565b60008115159050919050565b6116e5816116d0565b82525050565b600060208201905061170060008301846116dc565b92915050565b61170f8161165a565b82525050565b600060208201905061172a6000830184611706565b92915050565b600080600060608486031215611749576117486115f7565b5b600061175786828701611645565b935050602061176886828701611645565b92505060406117798682870161167b565b9150509250925092565b600060ff82169050919050565b61179981611783565b82525050565b60006020820190506117b46000830184611790565b92915050565b6000602082840312156117d0576117cf6115f7565b5b60006117de84828501611645565b91505092915050565b6117f08161161c565b82525050565b600060208201905061180b60008301846117e7565b92915050565b60008060408385031215611828576118276115f7565b5b600061183685828601611645565b925050602061184785828601611645565b9150509250929050565b7f4e487b7100000000000000000000000000000000000000000000000000000000600052602260045260246000fd5b6000600282049050600182168061189857607f821691505b6020821081036118ab576118aa611851565b5b50919050565b7f4f6e6c79206f776e65722063616e206275726e20746f6b656e73000000000000600082015250565b60006118e7601a83611550565b91506118f2826118b1565b602082019050919050565b60006020820190508181036000830152611916816118da565b9050919050565b7f4e487b7100000000000000000000000000000000000000000000000000000000600052601160045260246000fd5b60006119578261165a565b91506119628361165a565b92508282026119708161165a565b915082820484148315176119875761198661191d565b5b5092915050565b7f4e487b7100000000000000000000000000000000000000000000000000000000600052601260045260246000fd5b60006119c88261165a565b91506119d38361165a565b9250826119e3576119e261198e565b5b828204905092915050565b7f496e73756666696369656e742062616c616e6365000000000000000000000000600082015250565b6000611a24601483611550565b9150611a2f826119ee565b602082019050919050565b60006020820190508181036000830152611a5381611a17565b9050919050565b6000604082019050611a6f6000830185611706565b611a7c6020830184611706565b9392505050565b6000611a8e8261165a565b9150611a998361165a565b9250828201905080821115611ab157611ab061191d565b5b92915050565b7f45524332303a2064656372656173656420616c6c6f77616e63652062656c6f7760008201527f207a65726f000000000000000000000000000000000000000000000000000000602082015250565b6000611b13602583611550565b9150611b1e82611ab7565b604082019050919050565b60006020820190508181036000830152611b4281611b06565b9050919050565b7f4f6e6c79206f776e65722063616e206d696e7420746f6b656e73000000000000600082015250565b6000611b7f601a83611550565b9150611b8a82611b49565b602082019050919050565b60006020820190508181036000830152611bae81611b72565b9050919050565b7f45524332303a20617070726f76652066726f6d20746865207a65726f2061646460008201527f7265737300000000000000000000000000000000000000000000000000000000602082015250565b6000611c11602483611550565b9150611c1c82611bb5565b604082019050919050565b60006020820190508181036000830152611c4081611c04565b9050919050565b7f45524332303a20617070726f766520746f20746865207a65726f20616464726560008201527f7373000000000000000000000000000000000000000000000000000000000000602082015250565b6000611ca3602283611550565b9150611cae82611c47565b604082019050919050565b60006020820190508181036000830152611cd281611c96565b9050919050565b7f45524332303a206275726e2066726f6d20746865207a65726f2061646472657360008201527f7300000000000000000000000000000000000000000000000000000000000000602082015250565b6000611d35602183611550565b9150611d4082611cd9565b604082019050919050565b60006020820190508181036000830152611d6481611d28565b9050919050565b7f45524332303a206275726e20616d6f756e7420657863656564732062616c616e60008201527f6365000000000000000000000000000000000000000000000000000000000000602082015250565b6000611dc7602283611550565b9150611dd282611d6b565b604082019050919050565b60006020820190508181036000830152611df681611dba565b9050919050565b7f45524332303a20696e73756666696369656e7420616c6c6f77616e6365000000600082015250565b6000611e33601d83611550565b9150611e3e82611dfd565b602082019050919050565b60006020820190508181036000830152611e6281611e26565b9050919050565b7f45524332303a207472616e736665722066726f6d20746865207a65726f20616460008201527f6472657373000000000000000000000000000000000000000000000000000000602082015250565b6000611ec5602583611550565b9150611ed082611e69565b604082019050919050565b60006020820190508181036000830152611ef481611eb8565b9050919050565b7f45524332303a207472616e7366657220746f20746865207a65726f206164647260008201527f6573730000000000000000000000000000000000000000000000000000000000602082015250565b6000611f57602383611550565b9150611f6282611efb565b604082019050919050565b60006020820190508181036000830152611f8681611f4a565b9050919050565b7f45524332303a207472616e7366657220616d6f756e742065786365656473206260008201527f616c616e63650000000000000000000000000000000000000000000000000000602082015250565b6000611fe9602683611550565b9150611ff482611f8d565b604082019050919050565b6000602082019050818103600083015261201881611fdc565b9050919050565b7f45524332303a206d696e7420746f20746865207a65726f206164647265737300600082015250565b6000612055601f83611550565b91506120608261201f565b602082019050919050565b6000602082019050818103600083015261208481612048565b9050919050565b7f4e487b7100000000000000000000000000000000000000000000000000000000600052605160045260246000fdfea2646970667358221220981f4f9bbf50445e25403c94e7bc25f8295ebe439b25ed35ae736cc74f01e95364736f6c63430008180033",
  "linkReferences": {},
  "deployedLinkReferences": {}
}